{
  "address": "0x56fCa58a92930729309Ed4Cad09899190209220C",
  "abi": [
    {
      "inputs": [
        {
          "internalType": "string",
          "name": "_terms",
          "type": "string"
        },
        {
          "internalType": "address",
          "name": "_wrappedToken",
          "type": "address"
        },
        {
          "internalType": "uint256",
          "name": "_quorum",
          "type": "uint256"
        },
        {
          "internalType": "uint256",
          "name": "_votePeriod",
          "type": "uint256"
        },
        {
          "internalType": "address",
          "name": "_recoveryHub",
          "type": "address"
        },
        {
          "internalType": "address",
          "name": "_offerFactory",
          "type": "address"
        },
        {
          "internalType": "address",
          "name": "_oracle",
          "type": "address"
        },
        {
          "internalType": "address",
          "name": "_owner",
          "type": "address"
        }
      ],
      "stateMutability": "nonpayable",
      "type": "constructor"
    },
    {
      "anonymous": false,
      "inputs": [
        {
          "indexed": true,
          "internalType": "address",
          "name": "account",
          "type": "address"
        },
        {
          "indexed": false,
          "internalType": "uint8",
          "name": "addressType",
          "type": "uint8"
        }
      ],
      "name": "AddressTypeUpdate",
      "type": "event"
    },
    {
      "anonymous": false,
      "inputs": [
        {
          "indexed": true,
          "internalType": "address",
          "name": "owner",
          "type": "address"
        },
        {
          "indexed": true,
          "internalType": "address",
          "name": "spender",
          "type": "address"
        },
        {
          "indexed": false,
          "internalType": "uint256",
          "name": "value",
          "type": "uint256"
        }
      ],
      "name": "Approval",
      "type": "event"
    },
    {
      "anonymous": false,
      "inputs": [
        {
          "indexed": false,
          "internalType": "address",
          "name": "newContractAddress",
          "type": "address"
        },
        {
          "indexed": false,
          "internalType": "uint256",
          "name": "yesVotes",
          "type": "uint256"
        },
        {
          "indexed": false,
          "internalType": "uint256",
          "name": "oracleVotes",
          "type": "uint256"
        },
        {
          "indexed": false,
          "internalType": "uint256",
          "name": "totalVotingPower",
          "type": "uint256"
        }
      ],
      "name": "MigrationSucceeded",
      "type": "event"
    },
    {
      "anonymous": false,
      "inputs": [
        {
          "indexed": false,
          "internalType": "string",
          "name": "name",
          "type": "string"
        },
        {
          "indexed": false,
          "internalType": "string",
          "name": "symbol",
          "type": "string"
        }
      ],
      "name": "NameChanged",
      "type": "event"
    },
    {
      "anonymous": false,
      "inputs": [
        {
          "indexed": true,
          "internalType": "address",
          "name": "previousOwner",
          "type": "address"
        },
        {
          "indexed": true,
          "internalType": "address",
          "name": "newOwner",
          "type": "address"
        }
      ],
      "name": "OwnershipTransferred",
      "type": "event"
    },
    {
      "anonymous": false,
      "inputs": [
        {
          "indexed": true,
          "internalType": "address",
          "name": "from",
          "type": "address"
        },
        {
          "indexed": true,
          "internalType": "address",
          "name": "to",
          "type": "address"
        },
        {
          "indexed": false,
          "internalType": "uint256",
          "name": "value",
          "type": "uint256"
        }
      ],
      "name": "Transfer",
      "type": "event"
    },
    {
      "inputs": [
        {
          "internalType": "address",
          "name": "owner",
          "type": "address"
        },
        {
          "internalType": "address",
          "name": "spender",
          "type": "address"
        }
      ],
      "name": "allowance",
      "outputs": [
        {
          "internalType": "uint256",
          "name": "",
          "type": "uint256"
        }
      ],
      "stateMutability": "view",
      "type": "function"
    },
    {
      "inputs": [
        {
          "internalType": "address",
          "name": "spender",
          "type": "address"
        },
        {
          "internalType": "uint256",
          "name": "value",
          "type": "uint256"
        }
      ],
      "name": "approve",
      "outputs": [
        {
          "internalType": "bool",
          "name": "",
          "type": "bool"
        }
      ],
      "stateMutability": "nonpayable",
      "type": "function"
    },
    {
      "inputs": [
        {
          "internalType": "address",
          "name": "account",
          "type": "address"
        }
      ],
      "name": "balanceOf",
      "outputs": [
        {
          "internalType": "uint256",
          "name": "",
          "type": "uint256"
        }
      ],
      "stateMutability": "view",
      "type": "function"
    },
    {
      "inputs": [
        {
          "internalType": "uint256",
          "name": "amount",
          "type": "uint256"
        }
      ],
      "name": "burn",
      "outputs": [],
      "stateMutability": "nonpayable",
      "type": "function"
    },
    {
      "inputs": [
        {
          "internalType": "address",
          "name": "account",
          "type": "address"
        }
      ],
      "name": "canReceiveFromAnyone",
      "outputs": [
        {
          "internalType": "bool",
          "name": "",
          "type": "bool"
        }
      ],
      "stateMutability": "view",
      "type": "function"
    },
    {
      "inputs": [],
      "name": "claimPeriod",
      "outputs": [
        {
          "internalType": "uint256",
          "name": "",
          "type": "uint256"
        }
      ],
      "stateMutability": "pure",
      "type": "function"
    },
    {
      "inputs": [],
      "name": "customCollateralAddress",
      "outputs": [
        {
          "internalType": "address",
          "name": "",
          "type": "address"
        }
      ],
      "stateMutability": "view",
      "type": "function"
    },
    {
      "inputs": [],
      "name": "customCollateralRate",
      "outputs": [
        {
          "internalType": "uint256",
          "name": "",
          "type": "uint256"
        }
      ],
      "stateMutability": "view",
      "type": "function"
    },
    {
      "inputs": [],
      "name": "decimals",
      "outputs": [
        {
          "internalType": "uint8",
          "name": "",
          "type": "uint8"
        }
      ],
      "stateMutability": "view",
      "type": "function"
    },
    {
      "inputs": [
        {
          "internalType": "address",
          "name": "lostAddress",
          "type": "address"
        }
      ],
      "name": "deleteClaim",
      "outputs": [],
      "stateMutability": "nonpayable",
      "type": "function"
    },
    {
      "inputs": [
        {
          "internalType": "address",
          "name": "buyer",
          "type": "address"
        },
        {
          "internalType": "address",
          "name": "currency",
          "type": "address"
        }
      ],
      "name": "drag",
      "outputs": [],
      "stateMutability": "nonpayable",
      "type": "function"
    },
    {
      "inputs": [],
      "name": "factory",
      "outputs": [
        {
          "internalType": "contract IOfferFactory",
          "name": "",
          "type": "address"
        }
      ],
      "stateMutability": "view",
      "type": "function"
    },
    {
      "inputs": [],
      "name": "getClaimDeleter",
      "outputs": [
        {
          "internalType": "address",
          "name": "",
          "type": "address"
        }
      ],
      "stateMutability": "view",
      "type": "function"
    },
    {
      "inputs": [
        {
          "internalType": "address",
          "name": "collateralType",
          "type": "address"
        }
      ],
      "name": "getCollateralRate",
      "outputs": [
        {
          "internalType": "uint256",
          "name": "",
          "type": "uint256"
        }
      ],
      "stateMutability": "view",
      "type": "function"
    },
    {
      "inputs": [],
      "name": "getOracle",
      "outputs": [
        {
          "internalType": "address",
          "name": "",
          "type": "address"
        }
      ],
      "stateMutability": "view",
      "type": "function"
    },
    {
      "inputs": [
        {
          "internalType": "address",
          "name": "account",
          "type": "address"
        },
        {
          "internalType": "uint8",
          "name": "number",
          "type": "uint8"
        }
      ],
      "name": "hasFlag",
      "outputs": [
        {
          "internalType": "bool",
          "name": "",
          "type": "bool"
        }
      ],
      "stateMutability": "view",
      "type": "function"
    },
    {
      "inputs": [],
      "name": "isBinding",
      "outputs": [
        {
          "internalType": "bool",
          "name": "",
          "type": "bool"
        }
      ],
      "stateMutability": "view",
      "type": "function"
    },
    {
      "inputs": [
        {
          "internalType": "address",
          "name": "account",
          "type": "address"
        }
      ],
      "name": "isForbidden",
      "outputs": [
        {
          "internalType": "bool",
          "name": "",
          "type": "bool"
        }
      ],
      "stateMutability": "view",
      "type": "function"
    },
    {
      "inputs": [
        {
          "internalType": "address",
          "name": "account",
          "type": "address"
        }
      ],
      "name": "isPowerlisted",
      "outputs": [
        {
          "internalType": "bool",
          "name": "",
          "type": "bool"
        }
      ],
      "stateMutability": "view",
      "type": "function"
    },
    {
      "inputs": [
        {
          "internalType": "bytes32",
          "name": "salt",
          "type": "bytes32"
        },
        {
          "internalType": "uint256",
          "name": "pricePerShare",
          "type": "uint256"
        },
        {
          "internalType": "address",
          "name": "currency",
          "type": "address"
        }
      ],
      "name": "makeAcquisitionOffer",
      "outputs": [],
      "stateMutability": "payable",
      "type": "function"
    },
    {
      "inputs": [],
      "name": "migrate",
      "outputs": [],
      "stateMutability": "nonpayable",
      "type": "function"
    },
    {
      "inputs": [
        {
          "internalType": "address",
          "name": "target",
          "type": "address"
        },
        {
          "internalType": "uint256",
          "name": "externalSupportingVotes",
          "type": "uint256"
        }
      ],
      "name": "migrateWithExternalApproval",
      "outputs": [],
      "stateMutability": "nonpayable",
      "type": "function"
    },
    {
      "inputs": [],
      "name": "name",
      "outputs": [
        {
          "internalType": "string",
          "name": "",
          "type": "string"
        }
      ],
      "stateMutability": "view",
      "type": "function"
    },
    {
      "inputs": [
        {
          "internalType": "address",
          "name": "target",
          "type": "address"
        }
      ],
      "name": "notifyClaimDeleted",
      "outputs": [],
      "stateMutability": "nonpayable",
      "type": "function"
    },
    {
      "inputs": [
        {
          "internalType": "address",
          "name": "target",
          "type": "address"
        }
      ],
      "name": "notifyClaimMade",
      "outputs": [],
      "stateMutability": "nonpayable",
      "type": "function"
    },
    {
      "inputs": [],
      "name": "notifyOfferEnded",
      "outputs": [],
      "stateMutability": "nonpayable",
      "type": "function"
    },
    {
      "inputs": [
        {
          "internalType": "address",
          "name": "voter",
          "type": "address"
        }
      ],
      "name": "notifyVoted",
      "outputs": [],
      "stateMutability": "nonpayable",
      "type": "function"
    },
    {
      "inputs": [],
      "name": "offer",
      "outputs": [
        {
          "internalType": "contract IOffer",
          "name": "",
          "type": "address"
        }
      ],
      "stateMutability": "view",
      "type": "function"
    },
    {
      "inputs": [
        {
          "internalType": "address",
          "name": "from",
          "type": "address"
        },
        {
          "internalType": "uint256",
          "name": "amount",
          "type": "uint256"
        },
        {
          "internalType": "bytes",
          "name": "",
          "type": "bytes"
        }
      ],
      "name": "onTokenTransfer",
      "outputs": [
        {
          "internalType": "bool",
          "name": "",
          "type": "bool"
        }
      ],
      "stateMutability": "nonpayable",
      "type": "function"
    },
    {
      "inputs": [],
      "name": "owner",
      "outputs": [
        {
          "internalType": "address",
          "name": "",
          "type": "address"
        }
      ],
      "stateMutability": "view",
      "type": "function"
    },
    {
      "inputs": [],
      "name": "quorum",
      "outputs": [
        {
          "internalType": "uint256",
          "name": "",
          "type": "uint256"
        }
      ],
      "stateMutability": "view",
      "type": "function"
    },
    {
      "inputs": [
        {
          "internalType": "address",
          "name": "oldAddress",
          "type": "address"
        },
        {
          "internalType": "address",
          "name": "newAddress",
          "type": "address"
        }
      ],
      "name": "recover",
      "outputs": [],
      "stateMutability": "nonpayable",
      "type": "function"
    },
    {
      "inputs": [],
      "name": "recovery",
      "outputs": [
        {
          "internalType": "contract IRecoveryHub",
          "name": "",
          "type": "address"
        }
      ],
      "stateMutability": "view",
      "type": "function"
    },
    {
      "inputs": [],
      "name": "restrictTransfers",
      "outputs": [
        {
          "internalType": "bool",
          "name": "",
          "type": "bool"
        }
      ],
      "stateMutability": "view",
      "type": "function"
    },
    {
      "inputs": [
        {
          "internalType": "bool",
          "name": "transferRestrictionsApplicable",
          "type": "bool"
        }
      ],
      "name": "setApplicable",
      "outputs": [],
      "stateMutability": "nonpayable",
      "type": "function"
    },
    {
      "inputs": [
        {
          "internalType": "address",
          "name": "newOracle",
          "type": "address"
        }
      ],
      "name": "setOracle",
      "outputs": [],
      "stateMutability": "nonpayable",
      "type": "function"
    },
    {
      "inputs": [
        {
          "internalType": "address[]",
          "name": "addressesToAdd",
          "type": "address[]"
        },
        {
          "internalType": "uint8",
          "name": "value",
          "type": "uint8"
        }
      ],
      "name": "setType",
      "outputs": [],
      "stateMutability": "nonpayable",
      "type": "function"
    },
    {
      "inputs": [
        {
          "internalType": "address",
          "name": "account",
          "type": "address"
        },
        {
          "internalType": "uint8",
          "name": "typeNumber",
          "type": "uint8"
        }
      ],
      "name": "setType",
      "outputs": [],
      "stateMutability": "nonpayable",
      "type": "function"
    },
    {
      "inputs": [],
      "name": "symbol",
      "outputs": [
        {
          "internalType": "string",
          "name": "",
          "type": "string"
        }
      ],
      "stateMutability": "view",
      "type": "function"
    },
    {
      "inputs": [],
      "name": "terms",
      "outputs": [
        {
          "internalType": "string",
          "name": "",
          "type": "string"
        }
      ],
      "stateMutability": "view",
      "type": "function"
    },
    {
      "inputs": [],
      "name": "totalSupply",
      "outputs": [
        {
          "internalType": "uint256",
          "name": "",
          "type": "uint256"
        }
      ],
      "stateMutability": "view",
      "type": "function"
    },
    {
      "inputs": [],
      "name": "totalVotingTokens",
      "outputs": [
        {
          "internalType": "uint256",
          "name": "",
          "type": "uint256"
        }
      ],
      "stateMutability": "view",
      "type": "function"
    },
    {
      "inputs": [
        {
          "internalType": "address",
          "name": "to",
          "type": "address"
        },
        {
          "internalType": "uint256",
          "name": "value",
          "type": "uint256"
        }
      ],
      "name": "transfer",
      "outputs": [
        {
          "internalType": "bool",
          "name": "",
          "type": "bool"
        }
      ],
      "stateMutability": "nonpayable",
      "type": "function"
    },
    {
      "inputs": [
        {
          "internalType": "address",
          "name": "recipient",
          "type": "address"
        },
        {
          "internalType": "uint256",
          "name": "amount",
          "type": "uint256"
        },
        {
          "internalType": "bytes",
          "name": "data",
          "type": "bytes"
        }
      ],
      "name": "transferAndCall",
      "outputs": [
        {
          "internalType": "bool",
          "name": "",
          "type": "bool"
        }
      ],
      "stateMutability": "nonpayable",
      "type": "function"
    },
    {
      "inputs": [
        {
          "internalType": "address",
          "name": "sender",
          "type": "address"
        },
        {
          "internalType": "address",
          "name": "recipient",
          "type": "address"
        },
        {
          "internalType": "uint256",
          "name": "amount",
          "type": "uint256"
        }
      ],
      "name": "transferFrom",
      "outputs": [
        {
          "internalType": "bool",
          "name": "",
          "type": "bool"
        }
      ],
      "stateMutability": "nonpayable",
      "type": "function"
    },
    {
      "inputs": [
        {
          "internalType": "address",
          "name": "newOwner",
          "type": "address"
        }
      ],
      "name": "transferOwnership",
      "outputs": [],
      "stateMutability": "nonpayable",
      "type": "function"
    },
    {
      "inputs": [
        {
          "internalType": "uint256",
          "name": "amount",
          "type": "uint256"
        }
      ],
      "name": "unwrap",
      "outputs": [],
      "stateMutability": "nonpayable",
      "type": "function"
    },
    {
      "inputs": [],
      "name": "unwrapConversionFactor",
      "outputs": [
        {
          "internalType": "uint256",
          "name": "",
          "type": "uint256"
        }
      ],
      "stateMutability": "view",
      "type": "function"
    },
    {
      "inputs": [],
      "name": "votePeriod",
      "outputs": [
        {
          "internalType": "uint256",
          "name": "",
          "type": "uint256"
        }
      ],
      "stateMutability": "view",
      "type": "function"
    },
    {
      "inputs": [
        {
          "internalType": "address",
          "name": "voter",
          "type": "address"
        }
      ],
      "name": "votingPower",
      "outputs": [
        {
          "internalType": "uint256",
          "name": "",
          "type": "uint256"
        }
      ],
      "stateMutability": "view",
      "type": "function"
    },
    {
      "inputs": [
        {
          "internalType": "address",
          "name": "shareholder",
          "type": "address"
        },
        {
          "internalType": "uint256",
          "name": "amount",
          "type": "uint256"
        }
      ],
      "name": "wrap",
      "outputs": [],
      "stateMutability": "nonpayable",
      "type": "function"
    },
    {
      "inputs": [],
      "name": "wrapped",
      "outputs": [
        {
          "internalType": "contract IERC20",
          "name": "",
          "type": "address"
        }
      ],
      "stateMutability": "view",
      "type": "function"
    }
  ],
  "transactionHash": "0x050dfa263ae9784ee07d373900561b281bb531e6fe5cc8321574b20e5686bc26",
  "args": [
    "wwww.terms.ch",
    "0x453e384862245FAf4E021894d78BA8f6E51B8c19",
    75000,
    5184000,
    "0x250a54Eb1F6871DBD98222b7f23eA8b6D5241a42",
    "0x5a90E48b81Edf50813192E5F5Da0ED934Bf94c93",
    "0x6164DCecCfA4202aF89DA24Fa9b933Ec3fD05adA",
    "0x6164DCecCfA4202aF89DA24Fa9b933Ec3fD05adA"
  ],
  "numDeployments": 1,
  "solcInputHash": "79803b37f9f5c1fe49ee98f562930e9e",
  "bytecode": "0x61010060405260006005553480156200001757600080fd5b5060405162002ed738038062002ed78339810160408190526200003a91620003b8565b600380546001600160a81b0319166101006001600160a01b038481168202929092179283905560405187938b938b938b938a938a938a9390910416906000907f8be0079c531659141344cd1fd0a4f28419497f9722a3daafe3b4186f6b6457e0908290a350620000ab600162000183565b600480546001600160a01b039687166001600160a01b03199182161790915560a09490945260c0929092526001600160601b0319606091821b81166080526007805493909516929093169190911790925591901b1660e05287516200011890600a9060208b0190620002f5565b50604051636427ed9760e01b8152600060048201526001600160a01b03851690636427ed9790602401600060405180830381600087803b1580156200015c57600080fd5b505af115801562000171573d6000803e3d6000fd5b5050505050505050505050506200058e565b6003805460ff60a81b1916600160a81b1790558015620001ae57620001ab60006004620001b6565b50565b620001ab6000805b620001ca82601460ff84166001146200023a565b50620001df82601560ff84166002146200023a565b50620001f482601660ff84166004146200023a565b5060405160ff821681526001600160a01b038316907fe423d7d31023dbacefed7c937785d0012ad8f314381295efebfc0471d2c434549060200160405180910390a25050565b60008115156200024b858562000273565b15151462000268576200025f8484620002b5565b5060016200026c565b5060005b9392505050565b600080620002838360e062000507565b6001600160a01b038516600090815260208190526040902054600160ff929092169190911b9081161491505092915050565b6000620002c48260e062000507565b6001600160a01b039390931660009081526020819052604090208054600160ff9095169490941b9093189092555050565b82805462000303906200053b565b90600052602060002090601f01602090048101928262000327576000855562000372565b82601f106200034257805160ff191683800117855562000372565b8280016001018555821562000372579182015b828111156200037257825182559160200191906001019062000355565b506200038092915062000384565b5090565b5b8082111562000380576000815560010162000385565b80516001600160a01b0381168114620003b357600080fd5b919050565b600080600080600080600080610100898b031215620003d657600080fd5b88516001600160401b0380821115620003ee57600080fd5b818b0191508b601f8301126200040357600080fd5b81518181111562000418576200041862000578565b604051601f8201601f19908116603f0116810190838211818310171562000443576200044362000578565b81604052828152602093508e848487010111156200046057600080fd5b600091505b8282101562000484578482018401518183018501529083019062000465565b82821115620004965760008484830101525b9b50620004a89150508b82016200039b565b985050506040890151955060608901519450620004c860808a016200039b565b9350620004d860a08a016200039b565b9250620004e860c08a016200039b565b9150620004f860e08a016200039b565b90509295985092959890939650565b600060ff821660ff84168060ff038211156200053357634e487b7160e01b600052601160045260246000fd5b019392505050565b600181811c908216806200055057607f821691505b602082108114156200057257634e487b7160e01b600052602260045260246000fd5b50919050565b634e487b7160e01b600052604160045260246000fd5b60805160601c60a05160c05160e05160601c6128ca6200060d600039600081816108e901528181610d3701528181610f6c015281816112af015281816115bb0152611b8201526000818161073201526114000152600081816103e2015281816113da01526117f4015260008181610826015261142901526128ca6000f3fe6080604052600436106102ff5760003560e01c80638da5cb5b11610190578063c18172c4116100dc578063ddceafa911610095578063e5b824ec1161006f578063e5b824ec1461094b578063f2fde38b1461096b578063f5c0b95f1461098b578063fcb79a7e146109ab57600080fd5b8063ddceafa9146108d7578063de0e9a3e1461090b578063e445d70a1461092b57600080fd5b8063c18172c4146107f4578063c45a015514610814578063d37a9bb014610848578063d502562514610869578063dcc7d4ad1461087e578063dd62ed3e1461089157600080fd5b8063a4c0ed3611610149578063b1c8db6611610123578063b1c8db6614610774578063bf376c7a14610794578063c028df06146107b4578063c07473f6146107d457600080fd5b8063a4c0ed3614610700578063a781358714610720578063a9059cbb1461075457600080fd5b80638da5cb5b1461065b5780638fd3ab801461068057806395d89b41146106955780639e37878c146106aa5780639e4b5745146106ca578063a49a7cb1146106e057600080fd5b806332bc320b1161024f578063609181171161020857806377e071ad116101e257806377e071ad146105e75780637adbf973146106075780637dc2cd9814610627578063833b1fce1461063d57600080fd5b80636091811714610591578063648bf774146105a757806370a08231146105c757600080fd5b806332bc320b146104dc5780634000aea0146104f157806342966c6814610511578063429c66f01461053157806345c8a62b1461055157806350e70d481461057157600080fd5b806318160ddd116102bc5780632a0a4ed5116102965780632a0a4ed51461045b5780632b34309914610470578063313ce5671461049057806332a7ae95146104bc57600080fd5b806318160ddd14610404578063198453541461041957806323b872dd1461043b57600080fd5b806306fdde03146103045780630832e4701461032f578063095ea7b3146103535780630a81b2de146103835780630c6f0e5d146103985780631703a018146103d0575b600080fd5b34801561031057600080fd5b506103196109cb565b6040516103269190612671565b60405180910390f35b34801561033b57600080fd5b5061034560055481565b604051908152602001610326565b34801561035f57600080fd5b5061037361036e3660046122c2565b610b0c565b6040519015158152602001610326565b34801561038f57600080fd5b50610345610b22565b3480156103a457600080fd5b506008546103b8906001600160a01b031681565b6040516001600160a01b039091168152602001610326565b3480156103dc57600080fd5b506103457f000000000000000000000000000000000000000000000000000000000000000081565b34801561041057600080fd5b50600254610345565b34801561042557600080fd5b506104396104343660046122c2565b610baf565b005b34801561044757600080fd5b50610373610456366004612281565b610c5b565b34801561046757600080fd5b506103b8610cb9565b34801561047c57600080fd5b5061037361048b36600461220e565b610ccd565b34801561049c57600080fd5b506003546104aa9060ff1681565b60405160ff9091168152602001610326565b3480156104c857600080fd5b506104396104d736600461220e565b610ce0565b3480156104e857600080fd5b50610439610d96565b3480156104fd57600080fd5b5061037361050c3660046122ee565b610dbc565b34801561051d57600080fd5b5061043961052c366004612550565b610e61565b34801561053d57600080fd5b5061043961054c3660046123ac565b610ef8565b34801561055d57600080fd5b5061043961056c36600461220e565b610f55565b34801561057d57600080fd5b506004546103b8906001600160a01b031681565b34801561059d57600080fd5b5061034560095481565b3480156105b357600080fd5b506104396105c2366004612248565b610f61565b3480156105d357600080fd5b506103456105e236600461220e565b610fbc565b3480156105f357600080fd5b5061034561060236600461220e565b610fe0565b34801561061357600080fd5b5061043961062236600461220e565b611026565b34801561063357600080fd5b5062ed4e00610345565b34801561064957600080fd5b506007546001600160a01b03166103b8565b34801561066757600080fd5b506003546103b89061010090046001600160a01b031681565b34801561068c57600080fd5b5061043961108f565b3480156106a157600080fd5b5061031961109a565b3480156106b657600080fd5b506103736106c536600461220e565b611136565b3480156106d657600080fd5b5060055415610373565b3480156106ec57600080fd5b506104396106fb366004612377565b611143565b34801561070c57600080fd5b5061037361071b3660046122ee565b61117c565b34801561072c57600080fd5b506103457f000000000000000000000000000000000000000000000000000000000000000081565b34801561076057600080fd5b5061037361076f3660046122c2565b6111be565b34801561078057600080fd5b5061037361078f36600461220e565b6111ca565b3480156107a057600080fd5b506104396107af3660046122c2565b6111e8565b3480156107c057600080fd5b506006546103b8906001600160a01b031681565b3480156107e057600080fd5b506103456107ef36600461220e565b611299565b34801561080057600080fd5b5061043961080f36600461220e565b6112a4565b34801561082057600080fd5b506103b87f000000000000000000000000000000000000000000000000000000000000000081565b34801561085457600080fd5b5060035461037390600160a81b900460ff1681565b34801561087557600080fd5b506103196112f9565b61043961088c36600461246a565b611387565b34801561089d57600080fd5b506103456108ac366004612248565b6001600160a01b03918216600090815260016020908152604080832093909416825291909152205490565b3480156108e357600080fd5b506103b87f000000000000000000000000000000000000000000000000000000000000000081565b34801561091757600080fd5b50610439610926366004612550565b611549565b34801561093757600080fd5b50610439610946366004612430565b611578565b34801561095757600080fd5b5061043961096636600461220e565b6115b0565b34801561097757600080fd5b5061043961098636600461220e565b611605565b34801561099757600080fd5b506103736109a6366004612377565b61169b565b3480156109b757600080fd5b506104396109c6366004612248565b6116a7565b60606109d76005541590565b15610a7e5760048054604080516306fdde0360e01b815290516001600160a01b03909216926306fdde03928282019260009290829003018186803b158015610a1e57600080fd5b505afa158015610a32573d6000803e3d6000fd5b505050506040513d6000823e601f3d908101601f19168201604052610a5a91908101906124a3565b604051602001610a6a91906125dc565b604051602081830303815290604052905090565b60048054604080516306fdde0360e01b815290516001600160a01b03909216926306fdde03928282019260009290829003018186803b158015610ac057600080fd5b505afa158015610ad4573d6000803e3d6000fd5b505050506040513d6000823e601f3d908101601f19168201604052610afc91908101906124a3565b604051602001610a6a91906125ae565b6000610b193384846116ef565b50600192915050565b6000600460009054906101000a90046001600160a01b03166001600160a01b0316633a98ef396040518163ffffffff1660e01b815260040160206040518083038186803b158015610b7257600080fd5b505afa158015610b86573d6000803e3d6000fd5b505050506040513d601f19601f82011682018060405250810190610baa9190612569565b905090565b6007546001600160a01b03163314610bfb5760405162461bcd60e51b815260206004820152600a6024820152696e6f74206f7261636c6560b01b60448201526064015b60405180910390fd5b610c03610b22565b81610c0d60025490565b610c17919061272e565b1115610c4d5760405162461bcd60e51b8152602060048201526005602482015264766f74657360d81b6044820152606401610bf2565b610c578282611751565b5050565b6000610c688484846118bd565b6001600160a01b0384166000908152600160209081526040808320338452909152902054600160ff1b811015610cac57610cac8533610ca786856127ac565b6116ef565b60019150505b9392505050565b6000610baa6007546001600160a01b031690565b6000610cda826016611945565b92915050565b610ce8610cb9565b6001600160a01b0316336001600160a01b031614610d185760405162461bcd60e51b8152600401610bf2906126c9565b6040516332a7ae9560e01b81526001600160a01b0382811660048301527f000000000000000000000000000000000000000000000000000000000000000016906332a7ae9590602401600060405180830381600087803b158015610d7b57600080fd5b505af1158015610d8f573d6000803e3d6000fd5b5050505050565b6006546001600160a01b0316331415610dba57600680546001600160a01b03191690555b565b600080610dc986866111be565b90508015610e5857604051635260769b60e11b81526001600160a01b0387169063a4c0ed3690610e03903390899089908990600401612629565b602060405180830381600087803b158015610e1d57600080fd5b505af1158015610e31573d6000803e3d6000fd5b505050506040513d601f19601f82011682018060405250810190610e55919061244d565b90505b95945050505050565b610e6b3382611985565b6000610e776005541590565b610e8357600554610e86565b60015b6004549091506001600160a01b03166342966c68610ea4838561278d565b6040518263ffffffff1660e01b8152600401610ec291815260200190565b600060405180830381600087803b158015610edc57600080fd5b505af1158015610ef0573d6000803e3d6000fd5b505050505050565b60035461010090046001600160a01b03163314610f275760405162461bcd60e51b8152600401610bf29061270b565b60005b82811015610f4f57610f3d848484610ef8565b80610f478161282a565b915050610f2a565b50505050565b610c5781600180611a1b565b336001600160a01b037f00000000000000000000000000000000000000000000000000000000000000001614610fa95760405162461bcd60e51b8152600401610bf2906126c9565b610c578282610fb785610fbc565b6118bd565b6001600160a01b03166000908152602081905260409020546001600160e01b031690565b60006001600160a01b038216301415610ffb57506001919050565b6008546001600160a01b038381169116141561101957505060095490565b506000919050565b919050565b6007546001600160a01b0316331461106d5760405162461bcd60e51b815260206004820152600a6024820152696e6f74206f7261636c6560b01b6044820152606401610bf2565b600780546001600160a01b0319166001600160a01b0392909216919091179055565b610dba336000611751565b6060600460009054906101000a90046001600160a01b03166001600160a01b03166395d89b416040518163ffffffff1660e01b815260040160006040518083038186803b1580156110ea57600080fd5b505afa1580156110fe573d6000803e3d6000fd5b505050506040513d6000823e601f3d908101601f1916820160405261112691908101906124a3565b604051602001610a6a9190612604565b6000610cda826015611945565b60035461010090046001600160a01b031633146111725760405162461bcd60e51b8152600401610bf29061270b565b610c578282611a4b565b6004546000906001600160a01b031633146111a95760405162461bcd60e51b8152600401610bf2906126c9565b6111b38585611ac9565b506001949350505050565b6000610cb28383611b35565b60006111d7826014611945565b80610cda5750610cda826016611945565b600480546040516323b872dd60e01b81523392810192909252306024830152604482018390526001600160a01b0316906323b872dd90606401602060405180830381600087803b15801561123b57600080fd5b505af115801561124f573d6000803e3d6000fd5b505050506040513d601f19601f82011682018060405250810190611273919061244d565b61128f5760405162461bcd60e51b8152600401610bf2906126e9565b610c578282611ac9565b6000610cda82610fbc565b336001600160a01b037f000000000000000000000000000000000000000000000000000000000000000016146112ec5760405162461bcd60e51b8152600401610bf2906126c9565b610c5781600a6001611a1b565b600a8054611306906127ef565b80601f0160208091040260200160405190810160405280929190818152602001828054611332906127ef565b801561137f5780601f106113545761010080835404028352916020019161137f565b820191906000526020600020905b81548152906001019060200180831161136257829003601f168201915b505050505081565b600554156113a75760405162461bcd60e51b8152600401610bf2906126a9565b604051634dc5e43160e01b815260048101849052336024820152604481018390526001600160a01b0382811660648301527f000000000000000000000000000000000000000000000000000000000000000060848301527f000000000000000000000000000000000000000000000000000000000000000060a48301526000917f000000000000000000000000000000000000000000000000000000000000000090911690634dc5e43190349060c4016020604051808303818588803b15801561147057600080fd5b505af1158015611484573d6000803e3d6000fd5b50505050506040513d601f19601f820116820180604052508101906114a9919061222b565b90506114bf6006546001600160a01b0316151590565b1561152457600654604051637b64620f60e11b81526001600160a01b0383811660048301529091169063f6c8c41e90602401600060405180830381600087803b15801561150b57600080fd5b505af115801561151f573d6000803e3d6000fd5b505050505b600680546001600160a01b0319166001600160a01b0392909216919091179055505050565b6005546115685760405162461bcd60e51b8152600401610bf2906126a9565b6115753382600554611bef565b50565b60035461010090046001600160a01b031633146115a75760405162461bcd60e51b8152600401610bf29061270b565b61157581611cb4565b336001600160a01b037f000000000000000000000000000000000000000000000000000000000000000016146115f85760405162461bcd60e51b8152600401610bf2906126c9565b610c5781600a6000611a1b565b60035461010090046001600160a01b031633146116345760405162461bcd60e51b8152600401610bf29061270b565b6003546040516001600160a01b0380841692610100900416907f8be0079c531659141344cd1fd0a4f28419497f9722a3daafe3b4186f6b6457e090600090a3600380546001600160a01b0390921661010002610100600160a81b0319909216919091179055565b6000610cb28383611945565b6006546001600160a01b031633146116d15760405162461bcd60e51b8152600401610bf2906126c9565b6116e5826116de84610fbc565b6001611bef565b610c578183611ce4565b6001600160a01b0383811660008181526001602090815260408083209487168084529482529182902085905590518481527f8c5be1e5ebec7d5bd14f71427d1e84f3dd0314c0f7b2291e5b200ac8c7c3b92591015b60405180910390a3505050565b600061175c83610fbc565b611766908361272e565b90506000611772610b22565b90508082106117ab5760405162461bcd60e51b8152602060048201526005602482015264766f74657360d81b6044820152606401610bf2565b6006546001600160a01b0316156117ef5760405162461bcd60e51b815260206004820152600860248201526737379037b33332b960c11b6044820152606401610bf2565b6118197f00000000000000000000000000000000000000000000000000000000000000008261278d565b6118258361271061278d565b101561185c5760405162461bcd60e51b815260206004820152600660248201526571756f72756d60d01b6044820152606401610bf2565b6118668485611ce4565b604080516001600160a01b038616815260208101849052908101849052606081018290527f85e5711a70a7d2bae18e1232af474d82c98600b0e62fe079a28208520b58568e9060800160405180910390a150505050565b6118c8838383611ed1565b6001600160a01b038316600090815260208190526040812080548392906118f09084906127ac565b9091555061190090508282611edc565b816001600160a01b0316836001600160a01b03167fddf252ad1be2c89b69c2b068fc378daa952ba7f163c4a11628f55a4df523b3ef8360405161174491815260200190565b6000806119538360e0612746565b6001600160a01b038516600090815260208190526040902054600160ff929092169190911b9081161491505092915050565b61199182600083611ed1565b80600260008282546119a391906127ac565b90915550506001600160a01b038216600090815260208190526040812080548392906119d09084906127ac565b90915550506040518181526000906001600160a01b038416907fddf252ad1be2c89b69c2b068fc378daa952ba7f163c4a11628f55a4df523b3ef906020015b60405180910390a35050565b6000811515611a2a8585611945565b151514611a4357611a3b8484611fb2565b506001610cb2565b506000610cb2565b611a5d82601460ff8416600114611a1b565b50611a7082601560ff8416600214611a1b565b50611a8382601660ff8416600414611a1b565b5060405160ff821681526001600160a01b038316907fe423d7d31023dbacefed7c937785d0012ad8f314381295efebfc0471d2c434549060200160405180910390a25050565b611ad560008383611ed1565b8060026000828254611ae7919061272e565b90915550611af790508282611edc565b6040518181526001600160a01b038316906000907fddf252ad1be2c89b69c2b068fc378daa952ba7f163c4a11628f55a4df523b3ef90602001611a0f565b6000611b418383611ff0565b611b5d5760405162461bcd60e51b8152600401610bf2906126e9565b611b6833600a611945565b15610b19576040516304d301a360e41b81523360048201527f00000000000000000000000000000000000000000000000000000000000000006001600160a01b031690634d301a3090602401600060405180830381600087803b158015611bce57600080fd5b505af1158015611be2573d6000803e3d6000fd5b5050505050600192915050565b611bf98383611985565b6004546001600160a01b031663a9059cbb84611c15848661278d565b6040516001600160e01b031960e085901b1681526001600160a01b0390921660048301526024820152604401602060405180830381600087803b158015611c5b57600080fd5b505af1158015611c6f573d6000803e3d6000fd5b505050506040513d601f19601f82011682018060405250810190611c93919061244d565b611caf5760405162461bcd60e51b8152600401610bf2906126e9565b505050565b6003805460ff60a81b1916600160a81b1790558015611cd95761157560006004611a4b565b611575600080611a4b565b60055415611d045760405162461bcd60e51b8152600401610bf2906126a9565b600480546040516370a0823160e01b815230928101929092526001600160a01b03169063a9059cbb90839083906370a082319060240160206040518083038186803b158015611d5257600080fd5b505afa158015611d66573d6000803e3d6000fd5b505050506040513d601f19601f82011682018060405250810190611d8a9190612569565b6040516001600160e01b031960e085901b1681526001600160a01b0390921660048301526024820152604401602060405180830381600087803b158015611dd057600080fd5b505af1158015611de4573d6000803e3d6000fd5b505050506040513d601f19601f82011682018060405250810190611e08919061244d565b611e245760405162461bcd60e51b8152600401610bf2906126e9565b600480546001600160a01b0319166001600160a01b038416179055600254610c5790600480546040516370a0823160e01b815230928101929092526001600160a01b0316906370a082319060240160206040518083038186803b158015611e8a57600080fd5b505afa158015611e9e573d6000803e3d6000fd5b505050506040513d601f19601f82011682018060405250810190611ec29190612569565b611ecc919061276b565b611ffd565b611caf83838361206d565b6001600160a01b038216611f185760405162461bcd60e51b815260206004820152600360248201526203078360ec1b6044820152606401610bf2565b6001600160a01b038216600090815260208190526040812054906001600160e01b0319821690611f48848461272e565b90506001600160e01b03198116828114611f8f5760405162461bcd60e51b81526020600482015260086024820152676f766572666c6f7760c01b6044820152606401610bf2565b506001600160a01b03909416600090815260208190526040902093909355505050565b6000611fbf8260e0612746565b6001600160a01b039390931660009081526020819052604090208054600160ff9095169490941b9093189092555050565b6000610b193384846118bd565b600181101561201e5760405162461bcd60e51b8152600401610bf2906126a9565b60058190557f6c20b91d1723b78732eba64ff11ebd7966a6e4af568a00fa4f6b72c20f58b02a61204c6109cb565b61205461109a565b604051612062929190612684565b60405180910390a150565b61207683612136565b80612085575061208582612136565b1561212b576006546001600160a01b03161561210e5760065460405163e1a1810f60e01b81526001600160a01b0385811660048301528481166024830152604482018490529091169063e1a1810f90606401600060405180830381600087803b1580156120f157600080fd5b505af1158015612105573d6000803e3d6000fd5b5050505061212b565b61211b8360016000611a1b565b506121298260016000611a1b565b505b611caf838383612143565b6000610cda826001611945565b61214c826111ca565b1561215657505050565b61215f82611136565b1561216d57611caf826121aa565b61217683610ccd565b1561218657611caf826001611143565b612191836014611945565b806121a057506121a083611136565b15611caf57611caf835b600354600160a81b900460ff16156121f25760405162461bcd60e51b815260206004820152600b60248201526a1b9bdd08185b1b1bddd95960aa1b6044820152606401610bf2565b611575816000611143565b803560ff8116811461102157600080fd5b60006020828403121561222057600080fd5b8135610cb281612871565b60006020828403121561223d57600080fd5b8151610cb281612871565b6000806040838503121561225b57600080fd5b823561226681612871565b9150602083013561227681612871565b809150509250929050565b60008060006060848603121561229657600080fd5b83356122a181612871565b925060208401356122b181612871565b929592945050506040919091013590565b600080604083850312156122d557600080fd5b82356122e081612871565b946020939093013593505050565b6000806000806060858703121561230457600080fd5b843561230f81612871565b935060208501359250604085013567ffffffffffffffff8082111561233357600080fd5b818701915087601f83011261234757600080fd5b81358181111561235657600080fd5b88602082850101111561236857600080fd5b95989497505060200194505050565b6000806040838503121561238a57600080fd5b823561239581612871565b91506123a3602084016121fd565b90509250929050565b6000806000604084860312156123c157600080fd5b833567ffffffffffffffff808211156123d957600080fd5b818601915086601f8301126123ed57600080fd5b8135818111156123fc57600080fd5b8760208260051b850101111561241157600080fd5b60209283019550935061242791860190506121fd565b90509250925092565b60006020828403121561244257600080fd5b8135610cb281612886565b60006020828403121561245f57600080fd5b8151610cb281612886565b60008060006060848603121561247f57600080fd5b8335925060208401359150604084013561249881612871565b809150509250925092565b6000602082840312156124b557600080fd5b815167ffffffffffffffff808211156124cd57600080fd5b818401915084601f8301126124e157600080fd5b8151818111156124f3576124f361285b565b604051601f8201601f19908116603f0116810190838211818310171561251b5761251b61285b565b8160405282815287602084870101111561253457600080fd5b6125458360208301602088016127c3565b979650505050505050565b60006020828403121561256257600080fd5b5035919050565b60006020828403121561257b57600080fd5b5051919050565b6000815180845261259a8160208601602086016127c3565b601f01601f19169290920160200192915050565b600082516125c08184602087016127c3565b692028577261707065642960b01b920191825250600a01919050565b600082516125ee8184602087016127c3565b632053484160e01b920191825250600401919050565b600082516126168184602087016127c3565b605360f81b920191825250600101919050565b6001600160a01b0385168152602081018490526060604082018190528101829052818360808301376000818301608090810191909152601f909201601f191601019392505050565b602081526000610cb26020830184612582565b6040815260006126976040830185612582565b8281036020840152610e588185612582565b6020808252600690820152653330b1ba37b960d11b604082015260600190565b60208082526006908201526539b2b73232b960d11b604082015260600190565b6020808252600890820152673a3930b739b332b960c11b604082015260600190565b6020808252600990820152683737ba1037bbb732b960b91b604082015260600190565b6000821982111561274157612741612845565b500190565b600060ff821660ff84168060ff0382111561276357612763612845565b019392505050565b60008261278857634e487b7160e01b600052601260045260246000fd5b500490565b60008160001904831182151516156127a7576127a7612845565b500290565b6000828210156127be576127be612845565b500390565b60005b838110156127de5781810151838201526020016127c6565b83811115610f4f5750506000910152565b600181811c9082168061280357607f821691505b6020821081141561282457634e487b7160e01b600052602260045260246000fd5b50919050565b600060001982141561283e5761283e612845565b5060010190565b634e487b7160e01b600052601160045260246000fd5b634e487b7160e01b600052604160045260246000fd5b6001600160a01b038116811461157557600080fd5b801515811461157557600080fdfea2646970667358221220cfaea87ffd3941141b9187e8df8f9b899b41fe0a41a667e729b78d34cc82bd0f64736f6c63430008070033",
  "devdoc": {
    "kind": "dev",
    "methods": {
      "allowance(address,address)": {
        "details": "See `IERC20.allowance`."
      },
      "approve(address,uint256)": {
        "details": "See `IERC20.approve`. Requirements: - `spender` cannot be the zero address."
      },
      "balanceOf(address)": {
        "details": "See `IERC20.balanceOf`."
      },
      "totalSupply()": {
        "details": "See `IERC20.totalSupply`."
      },
      "transferFrom(address,address,uint256)": {
        "details": "See `IERC20.transferFrom`. Emits an `Approval` event indicating the updated allowance. This is not required by the EIP. See the note at the beginning of `ERC20`; Requirements: - `sender` and `recipient` cannot be the zero address. - `sender` must have a balance of at least `value`. - the caller must have allowance for `sender`'s tokens of at least `amount`."
      },
      "transferOwnership(address)": {
        "details": "Transfers ownership of the contract to a new account (`newOwner`). Can only be called by the current owner."
      }
    },
    "version": 1
  },
  "userdoc": {
    "kind": "user",
    "methods": {
      "burn(uint256)": {
        "notice": "Burns both the token itself as well as the wrapped token! If you want to get out of the shareholder agreement, use unwrap after it has been deactivated by a majority vote or acquisition. Burning only works if wrapped token supports burning. Also, the exact meaning of this operation might depend on the circumstances. Burning and reussing the wrapped token does not free the sender from the legal obligations of the shareholder agreement."
      },
      "canReceiveFromAnyone(address)": {
        "notice": "If true, this address is allowlisted and can only transfer tokens to other allowlisted addresses."
      },
      "getClaimDeleter()": {
        "notice": "Let the oracle act as deleter of invalid claims. In earlier versions, this was referring to the claim deleter of the wrapped token. But that stops working after a successful acquisition as the acquisition currency most likely does not have a claim deleter."
      },
      "getCollateralRate(address)": {
        "notice": "Returns the collateral rate for the given collateral type and 0 if that type of collateral is not accepted. By default, only the token itself is accepted at a rate of 1:1. Subclasses should override this method if they want to add additional types of collateral."
      },
      "isBinding()": {
        "notice": "Indicates that the token holders are bound to the token terms and that: - Conversion back to the wrapped token (unwrap) is not allowed - A drag-along can be performed by making an according offer - They can be migrated to a new version of this contract in accordance with the terms"
      },
      "isForbidden(address)": {
        "notice": "If true, this address can only transfer tokens to allowlisted addresses and not receive from anyone."
      },
      "isPowerlisted(address)": {
        "notice": "If true, this address can automatically allowlist target addresses if necessary."
      },
      "name()": {
        "notice": "Current recommended naming convention is to add the postfix \"SHA\" to the plain shares in order to indicate that this token represents shares bound to a shareholder agreement."
      },
      "setApplicable(bool)": {
        "notice": "Configures whether the allowlisting is applied. Also sets the powerlist and allowlist flags on the null address accordingly. It is recommended to also deactivate the powerlist flag on other addresses."
      },
      "unwrap(uint256)": {
        "notice": "Decrease the number of drag-along tokens. The user gets back their shares in return "
      },
      "wrap(address,uint256)": {
        "notice": "Wraps additional tokens, thereby creating more ERC20Draggable tokens. "
      }
    },
    "version": 1
  },
  "storageLayout": {
    "storage": [
      {
        "astId": 521,
        "contract": "src/shares/AllowlistDraggableShares.sol:AllowlistDraggableShares",
        "label": "_balances",
        "offset": 0,
        "slot": "0",
        "type": "t_mapping(t_address,t_uint256)"
      },
      {
        "astId": 527,
        "contract": "src/shares/AllowlistDraggableShares.sol:AllowlistDraggableShares",
        "label": "_allowances",
        "offset": 0,
        "slot": "1",
        "type": "t_mapping(t_address,t_mapping(t_address,t_uint256))"
      },
      {
        "astId": 529,
        "contract": "src/shares/AllowlistDraggableShares.sol:AllowlistDraggableShares",
        "label": "_totalSupply",
        "offset": 0,
        "slot": "2",
        "type": "t_uint256"
      },
      {
        "astId": 532,
        "contract": "src/shares/AllowlistDraggableShares.sol:AllowlistDraggableShares",
        "label": "decimals",
        "offset": 0,
        "slot": "3",
        "type": "t_uint8"
      },
      {
        "astId": 8231,
        "contract": "src/shares/AllowlistDraggableShares.sol:AllowlistDraggableShares",
        "label": "owner",
        "offset": 1,
        "slot": "3",
        "type": "t_address"
      },
      {
        "astId": 209,
        "contract": "src/shares/AllowlistDraggableShares.sol:AllowlistDraggableShares",
        "label": "restrictTransfers",
        "offset": 21,
        "slot": "3",
        "type": "t_bool"
      },
      {
        "astId": 3073,
        "contract": "src/shares/AllowlistDraggableShares.sol:AllowlistDraggableShares",
        "label": "wrapped",
        "offset": 0,
        "slot": "4",
        "type": "t_contract(IERC20)1179"
      },
      {
        "astId": 3079,
        "contract": "src/shares/AllowlistDraggableShares.sol:AllowlistDraggableShares",
        "label": "unwrapConversionFactor",
        "offset": 0,
        "slot": "5",
        "type": "t_uint256"
      },
      {
        "astId": 3082,
        "contract": "src/shares/AllowlistDraggableShares.sol:AllowlistDraggableShares",
        "label": "offer",
        "offset": 0,
        "slot": "6",
        "type": "t_contract(IOffer)3794"
      },
      {
        "astId": 3088,
        "contract": "src/shares/AllowlistDraggableShares.sol:AllowlistDraggableShares",
        "label": "oracle",
        "offset": 0,
        "slot": "7",
        "type": "t_address"
      },
      {
        "astId": 6328,
        "contract": "src/shares/AllowlistDraggableShares.sol:AllowlistDraggableShares",
        "label": "customCollateralAddress",
        "offset": 0,
        "slot": "8",
        "type": "t_address"
      },
      {
        "astId": 6330,
        "contract": "src/shares/AllowlistDraggableShares.sol:AllowlistDraggableShares",
        "label": "customCollateralRate",
        "offset": 0,
        "slot": "9",
        "type": "t_uint256"
      },
      {
        "astId": 7174,
        "contract": "src/shares/AllowlistDraggableShares.sol:AllowlistDraggableShares",
        "label": "terms",
        "offset": 0,
        "slot": "10",
        "type": "t_string_storage"
      }
    ],
    "types": {
      "t_address": {
        "encoding": "inplace",
        "label": "address",
        "numberOfBytes": "20"
      },
      "t_bool": {
        "encoding": "inplace",
        "label": "bool",
        "numberOfBytes": "1"
      },
      "t_contract(IERC20)1179": {
        "encoding": "inplace",
        "label": "contract IERC20",
        "numberOfBytes": "20"
      },
      "t_contract(IOffer)3794": {
        "encoding": "inplace",
        "label": "contract IOffer",
        "numberOfBytes": "20"
      },
      "t_mapping(t_address,t_mapping(t_address,t_uint256))": {
        "encoding": "mapping",
        "key": "t_address",
        "label": "mapping(address => mapping(address => uint256))",
        "numberOfBytes": "32",
        "value": "t_mapping(t_address,t_uint256)"
      },
      "t_mapping(t_address,t_uint256)": {
        "encoding": "mapping",
        "key": "t_address",
        "label": "mapping(address => uint256)",
        "numberOfBytes": "32",
        "value": "t_uint256"
      },
      "t_string_storage": {
        "encoding": "bytes",
        "label": "string",
        "numberOfBytes": "32"
      },
      "t_uint256": {
        "encoding": "inplace",
        "label": "uint256",
        "numberOfBytes": "32"
      },
      "t_uint8": {
        "encoding": "inplace",
        "label": "uint8",
        "numberOfBytes": "1"
      }
    }
  }
}