{
  "address": "0xDC6715b0d5ad3AdD9e9Bd4b2c49df2BB220AD44A",
  "abi": [
    {
      "inputs": [
        {
          "internalType": "string",
          "name": "_symbol",
          "type": "string"
        },
        {
          "internalType": "string",
          "name": "_name",
          "type": "string"
        },
        {
          "internalType": "string",
          "name": "_terms",
          "type": "string"
        },
        {
          "internalType": "uint256",
          "name": "_totalShares",
          "type": "uint256"
        },
        {
          "internalType": "address",
          "name": "_recoveryHub",
          "type": "address"
        },
        {
          "internalType": "address",
          "name": "_owner",
          "type": "address"
        }
      ],
      "stateMutability": "nonpayable",
      "type": "constructor"
    },
    {
      "anonymous": false,
      "inputs": [
        {
          "indexed": true,
          "internalType": "address",
          "name": "account",
          "type": "address"
        },
        {
          "indexed": false,
          "internalType": "uint8",
          "name": "addressType",
          "type": "uint8"
        }
      ],
      "name": "AddressTypeUpdate",
      "type": "event"
    },
    {
      "anonymous": false,
      "inputs": [
        {
          "indexed": false,
          "internalType": "string",
          "name": "message",
          "type": "string"
        }
      ],
      "name": "Announcement",
      "type": "event"
    },
    {
      "anonymous": false,
      "inputs": [
        {
          "indexed": true,
          "internalType": "address",
          "name": "owner",
          "type": "address"
        },
        {
          "indexed": true,
          "internalType": "address",
          "name": "spender",
          "type": "address"
        },
        {
          "indexed": false,
          "internalType": "uint256",
          "name": "value",
          "type": "uint256"
        }
      ],
      "name": "Approval",
      "type": "event"
    },
    {
      "anonymous": false,
      "inputs": [
        {
          "indexed": false,
          "internalType": "string",
          "name": "name",
          "type": "string"
        },
        {
          "indexed": false,
          "internalType": "string",
          "name": "symbol",
          "type": "string"
        }
      ],
      "name": "NameChanged",
      "type": "event"
    },
    {
      "anonymous": false,
      "inputs": [
        {
          "indexed": true,
          "internalType": "address",
          "name": "previousOwner",
          "type": "address"
        },
        {
          "indexed": true,
          "internalType": "address",
          "name": "newOwner",
          "type": "address"
        }
      ],
      "name": "OwnershipTransferred",
      "type": "event"
    },
    {
      "anonymous": false,
      "inputs": [
        {
          "indexed": true,
          "internalType": "address",
          "name": "holder",
          "type": "address"
        },
        {
          "indexed": false,
          "internalType": "uint256",
          "name": "amount",
          "type": "uint256"
        },
        {
          "indexed": false,
          "internalType": "string",
          "name": "message",
          "type": "string"
        }
      ],
      "name": "TokensDeclaredInvalid",
      "type": "event"
    },
    {
      "anonymous": false,
      "inputs": [
        {
          "indexed": true,
          "internalType": "address",
          "name": "from",
          "type": "address"
        },
        {
          "indexed": true,
          "internalType": "address",
          "name": "to",
          "type": "address"
        },
        {
          "indexed": false,
          "internalType": "uint256",
          "name": "value",
          "type": "uint256"
        }
      ],
      "name": "Transfer",
      "type": "event"
    },
    {
      "inputs": [
        {
          "internalType": "address",
          "name": "owner",
          "type": "address"
        },
        {
          "internalType": "address",
          "name": "spender",
          "type": "address"
        }
      ],
      "name": "allowance",
      "outputs": [
        {
          "internalType": "uint256",
          "name": "",
          "type": "uint256"
        }
      ],
      "stateMutability": "view",
      "type": "function"
    },
    {
      "inputs": [
        {
          "internalType": "string",
          "name": "message",
          "type": "string"
        }
      ],
      "name": "announcement",
      "outputs": [],
      "stateMutability": "nonpayable",
      "type": "function"
    },
    {
      "inputs": [
        {
          "internalType": "address",
          "name": "spender",
          "type": "address"
        },
        {
          "internalType": "uint256",
          "name": "value",
          "type": "uint256"
        }
      ],
      "name": "approve",
      "outputs": [
        {
          "internalType": "bool",
          "name": "",
          "type": "bool"
        }
      ],
      "stateMutability": "nonpayable",
      "type": "function"
    },
    {
      "inputs": [
        {
          "internalType": "address",
          "name": "account",
          "type": "address"
        }
      ],
      "name": "balanceOf",
      "outputs": [
        {
          "internalType": "uint256",
          "name": "",
          "type": "uint256"
        }
      ],
      "stateMutability": "view",
      "type": "function"
    },
    {
      "inputs": [
        {
          "internalType": "uint256",
          "name": "_amount",
          "type": "uint256"
        }
      ],
      "name": "burn",
      "outputs": [],
      "stateMutability": "nonpayable",
      "type": "function"
    },
    {
      "inputs": [
        {
          "internalType": "address",
          "name": "account",
          "type": "address"
        }
      ],
      "name": "canReceiveFromAnyone",
      "outputs": [
        {
          "internalType": "bool",
          "name": "",
          "type": "bool"
        }
      ],
      "stateMutability": "view",
      "type": "function"
    },
    {
      "inputs": [],
      "name": "claimPeriod",
      "outputs": [
        {
          "internalType": "uint256",
          "name": "",
          "type": "uint256"
        }
      ],
      "stateMutability": "pure",
      "type": "function"
    },
    {
      "inputs": [],
      "name": "customCollateralAddress",
      "outputs": [
        {
          "internalType": "address",
          "name": "",
          "type": "address"
        }
      ],
      "stateMutability": "view",
      "type": "function"
    },
    {
      "inputs": [],
      "name": "customCollateralRate",
      "outputs": [
        {
          "internalType": "uint256",
          "name": "",
          "type": "uint256"
        }
      ],
      "stateMutability": "view",
      "type": "function"
    },
    {
      "inputs": [],
      "name": "decimals",
      "outputs": [
        {
          "internalType": "uint8",
          "name": "",
          "type": "uint8"
        }
      ],
      "stateMutability": "view",
      "type": "function"
    },
    {
      "inputs": [
        {
          "internalType": "address",
          "name": "holder",
          "type": "address"
        },
        {
          "internalType": "uint256",
          "name": "amount",
          "type": "uint256"
        },
        {
          "internalType": "string",
          "name": "message",
          "type": "string"
        }
      ],
      "name": "declareInvalid",
      "outputs": [],
      "stateMutability": "nonpayable",
      "type": "function"
    },
    {
      "inputs": [
        {
          "internalType": "address",
          "name": "lostAddress",
          "type": "address"
        }
      ],
      "name": "deleteClaim",
      "outputs": [],
      "stateMutability": "nonpayable",
      "type": "function"
    },
    {
      "inputs": [],
      "name": "getClaimDeleter",
      "outputs": [
        {
          "internalType": "address",
          "name": "",
          "type": "address"
        }
      ],
      "stateMutability": "view",
      "type": "function"
    },
    {
      "inputs": [
        {
          "internalType": "address",
          "name": "collateralType",
          "type": "address"
        }
      ],
      "name": "getCollateralRate",
      "outputs": [
        {
          "internalType": "uint256",
          "name": "",
          "type": "uint256"
        }
      ],
      "stateMutability": "view",
      "type": "function"
    },
    {
      "inputs": [
        {
          "internalType": "address",
          "name": "account",
          "type": "address"
        },
        {
          "internalType": "uint8",
          "name": "number",
          "type": "uint8"
        }
      ],
      "name": "hasFlag",
      "outputs": [
        {
          "internalType": "bool",
          "name": "",
          "type": "bool"
        }
      ],
      "stateMutability": "view",
      "type": "function"
    },
    {
      "inputs": [],
      "name": "invalidTokens",
      "outputs": [
        {
          "internalType": "uint256",
          "name": "",
          "type": "uint256"
        }
      ],
      "stateMutability": "view",
      "type": "function"
    },
    {
      "inputs": [
        {
          "internalType": "address",
          "name": "account",
          "type": "address"
        }
      ],
      "name": "isForbidden",
      "outputs": [
        {
          "internalType": "bool",
          "name": "",
          "type": "bool"
        }
      ],
      "stateMutability": "view",
      "type": "function"
    },
    {
      "inputs": [
        {
          "internalType": "address",
          "name": "account",
          "type": "address"
        }
      ],
      "name": "isPowerlisted",
      "outputs": [
        {
          "internalType": "bool",
          "name": "",
          "type": "bool"
        }
      ],
      "stateMutability": "view",
      "type": "function"
    },
    {
      "inputs": [
        {
          "internalType": "address",
          "name": "target",
          "type": "address"
        },
        {
          "internalType": "uint256",
          "name": "amount",
          "type": "uint256"
        }
      ],
      "name": "mint",
      "outputs": [],
      "stateMutability": "nonpayable",
      "type": "function"
    },
    {
      "inputs": [
        {
          "internalType": "address",
          "name": "shareholder",
          "type": "address"
        },
        {
          "internalType": "address",
          "name": "callee",
          "type": "address"
        },
        {
          "internalType": "uint256",
          "name": "amount",
          "type": "uint256"
        },
        {
          "internalType": "bytes",
          "name": "data",
          "type": "bytes"
        }
      ],
      "name": "mintAndCall",
      "outputs": [],
      "stateMutability": "nonpayable",
      "type": "function"
    },
    {
      "inputs": [],
      "name": "name",
      "outputs": [
        {
          "internalType": "string",
          "name": "",
          "type": "string"
        }
      ],
      "stateMutability": "view",
      "type": "function"
    },
    {
      "inputs": [
        {
          "internalType": "address",
          "name": "target",
          "type": "address"
        }
      ],
      "name": "notifyClaimDeleted",
      "outputs": [],
      "stateMutability": "nonpayable",
      "type": "function"
    },
    {
      "inputs": [
        {
          "internalType": "address",
          "name": "target",
          "type": "address"
        }
      ],
      "name": "notifyClaimMade",
      "outputs": [],
      "stateMutability": "nonpayable",
      "type": "function"
    },
    {
      "inputs": [],
      "name": "owner",
      "outputs": [
        {
          "internalType": "address",
          "name": "",
          "type": "address"
        }
      ],
      "stateMutability": "view",
      "type": "function"
    },
    {
      "inputs": [
        {
          "internalType": "address",
          "name": "oldAddress",
          "type": "address"
        },
        {
          "internalType": "address",
          "name": "newAddress",
          "type": "address"
        }
      ],
      "name": "recover",
      "outputs": [],
      "stateMutability": "nonpayable",
      "type": "function"
    },
    {
      "inputs": [],
      "name": "recovery",
      "outputs": [
        {
          "internalType": "contract IRecoveryHub",
          "name": "",
          "type": "address"
        }
      ],
      "stateMutability": "view",
      "type": "function"
    },
    {
      "inputs": [],
      "name": "restrictTransfers",
      "outputs": [
        {
          "internalType": "bool",
          "name": "",
          "type": "bool"
        }
      ],
      "stateMutability": "view",
      "type": "function"
    },
    {
      "inputs": [
        {
          "internalType": "bool",
          "name": "transferRestrictionsApplicable",
          "type": "bool"
        }
      ],
      "name": "setApplicable",
      "outputs": [],
      "stateMutability": "nonpayable",
      "type": "function"
    },
    {
      "inputs": [
        {
          "internalType": "address",
          "name": "collateral",
          "type": "address"
        },
        {
          "internalType": "uint256",
          "name": "rate",
          "type": "uint256"
        }
      ],
      "name": "setCustomClaimCollateral",
      "outputs": [],
      "stateMutability": "nonpayable",
      "type": "function"
    },
    {
      "inputs": [
        {
          "internalType": "string",
          "name": "_symbol",
          "type": "string"
        },
        {
          "internalType": "string",
          "name": "_name",
          "type": "string"
        }
      ],
      "name": "setName",
      "outputs": [],
      "stateMutability": "nonpayable",
      "type": "function"
    },
    {
      "inputs": [
        {
          "internalType": "string",
          "name": "_terms",
          "type": "string"
        }
      ],
      "name": "setTerms",
      "outputs": [],
      "stateMutability": "nonpayable",
      "type": "function"
    },
    {
      "inputs": [
        {
          "internalType": "uint256",
          "name": "_newTotalShares",
          "type": "uint256"
        }
      ],
      "name": "setTotalShares",
      "outputs": [],
      "stateMutability": "nonpayable",
      "type": "function"
    },
    {
      "inputs": [
        {
          "internalType": "address[]",
          "name": "addressesToAdd",
          "type": "address[]"
        },
        {
          "internalType": "uint8",
          "name": "value",
          "type": "uint8"
        }
      ],
      "name": "setType",
      "outputs": [],
      "stateMutability": "nonpayable",
      "type": "function"
    },
    {
      "inputs": [
        {
          "internalType": "address",
          "name": "account",
          "type": "address"
        },
        {
          "internalType": "uint8",
          "name": "typeNumber",
          "type": "uint8"
        }
      ],
      "name": "setType",
      "outputs": [],
      "stateMutability": "nonpayable",
      "type": "function"
    },
    {
      "inputs": [],
      "name": "symbol",
      "outputs": [
        {
          "internalType": "string",
          "name": "",
          "type": "string"
        }
      ],
      "stateMutability": "view",
      "type": "function"
    },
    {
      "inputs": [],
      "name": "terms",
      "outputs": [
        {
          "internalType": "string",
          "name": "",
          "type": "string"
        }
      ],
      "stateMutability": "view",
      "type": "function"
    },
    {
      "inputs": [],
      "name": "totalShares",
      "outputs": [
        {
          "internalType": "uint256",
          "name": "",
          "type": "uint256"
        }
      ],
      "stateMutability": "view",
      "type": "function"
    },
    {
      "inputs": [],
      "name": "totalSupply",
      "outputs": [
        {
          "internalType": "uint256",
          "name": "",
          "type": "uint256"
        }
      ],
      "stateMutability": "view",
      "type": "function"
    },
    {
      "inputs": [],
      "name": "totalValidSupply",
      "outputs": [
        {
          "internalType": "uint256",
          "name": "",
          "type": "uint256"
        }
      ],
      "stateMutability": "view",
      "type": "function"
    },
    {
      "inputs": [
        {
          "internalType": "address",
          "name": "recipient",
          "type": "address"
        },
        {
          "internalType": "uint256",
          "name": "amount",
          "type": "uint256"
        }
      ],
      "name": "transfer",
      "outputs": [
        {
          "internalType": "bool",
          "name": "",
          "type": "bool"
        }
      ],
      "stateMutability": "nonpayable",
      "type": "function"
    },
    {
      "inputs": [
        {
          "internalType": "address",
          "name": "recipient",
          "type": "address"
        },
        {
          "internalType": "uint256",
          "name": "amount",
          "type": "uint256"
        },
        {
          "internalType": "bytes",
          "name": "data",
          "type": "bytes"
        }
      ],
      "name": "transferAndCall",
      "outputs": [
        {
          "internalType": "bool",
          "name": "",
          "type": "bool"
        }
      ],
      "stateMutability": "nonpayable",
      "type": "function"
    },
    {
      "inputs": [
        {
          "internalType": "address",
          "name": "sender",
          "type": "address"
        },
        {
          "internalType": "address",
          "name": "recipient",
          "type": "address"
        },
        {
          "internalType": "uint256",
          "name": "amount",
          "type": "uint256"
        }
      ],
      "name": "transferFrom",
      "outputs": [
        {
          "internalType": "bool",
          "name": "",
          "type": "bool"
        }
      ],
      "stateMutability": "nonpayable",
      "type": "function"
    },
    {
      "inputs": [
        {
          "internalType": "address",
          "name": "newOwner",
          "type": "address"
        }
      ],
      "name": "transferOwnership",
      "outputs": [],
      "stateMutability": "nonpayable",
      "type": "function"
    }
  ],
  "transactionHash": "0x8b72f4dd61345cbaa41e2a5b1ff5e46401c24961337c30c593e2088da9a8e286",
  "args": [
    "AYS",
    "TAydea Shares",
    "https://aydea.ch",
    35000,
    "0x6548FAD069F2eDa512a658c17606Eed81095c93D",
    "0x6164DCecCfA4202aF89DA24Fa9b933Ec3fD05adA"
  ],
  "numDeployments": 1,
  "solcInputHash": "79803b37f9f5c1fe49ee98f562930e9e",
  "bytecode": "0x60a060405260006009556000600a553480156200001b57600080fd5b5060405162002414380380620024148339810160408190526200003e91620004a7565b6003805460ff19169055606082901b6001600160601b031916608052600580546001600160a01b0319166001600160a01b03831690811790915560405187918791879187918691889187918791600091869182919084907f8be0079c531659141344cd1fd0a4f28419497f9722a3daafe3b4186f6b6457e0908290a350620000c784846200017c565b5050506009849055508351620000e590600890602087019062000353565b50505050505050620000fe6001620001e760201b60201c565b83516200011390600890602087019062000353565b50604051636427ed9760e01b8152600060048201526001600160a01b03831690636427ed9790602401600060405180830381600087803b1580156200015757600080fd5b505af11580156200016c573d6000803e3d6000fd5b5050505050505050505062000680565b81516200019190600790602085019062000353565b508051620001a790600690602084019062000353565b507f6c20b91d1723b78732eba64ff11ebd7966a6e4af568a00fa4f6b72c20f58b02a8183604051620001db92919062000594565b60405180910390a15050565b600b805460ff1916600117905580156200020c57620002096000600462000214565b50565b620002096000805b6200022882601460ff841660011462000298565b506200023d82601560ff841660021462000298565b506200025282601660ff841660041462000298565b5060405160ff821681526001600160a01b038316907fe423d7d31023dbacefed7c937785d0012ad8f314381295efebfc0471d2c434549060200160405180910390a25050565b6000811515620002a98585620002d1565b151514620002c657620002bd848462000313565b506001620002ca565b5060005b9392505050565b600080620002e18360e0620005c6565b6001600160a01b038516600090815260208190526040902054600160ff929092169190911b9081161491505092915050565b6000620003228260e0620005c6565b6001600160a01b039390931660009081526020819052604090208054600160ff9095169490941b9093189092555050565b82805462000361906200062d565b90600052602060002090601f016020900481019282620003855760008555620003d0565b82601f10620003a057805160ff1916838001178555620003d0565b82800160010185558215620003d0579182015b82811115620003d0578251825591602001919060010190620003b3565b50620003de929150620003e2565b5090565b5b80821115620003de5760008155600101620003e3565b80516001600160a01b03811681146200041157600080fd5b919050565b600082601f8301126200042857600080fd5b81516001600160401b03808211156200044557620004456200066a565b604051601f8301601f19908116603f011681019082821181831017156200047057620004706200066a565b816040528381528660208588010111156200048a57600080fd5b6200049d846020830160208901620005fa565b9695505050505050565b60008060008060008060c08789031215620004c157600080fd5b86516001600160401b0380821115620004d957600080fd5b620004e78a838b0162000416565b97506020890151915080821115620004fe57600080fd5b6200050c8a838b0162000416565b965060408901519150808211156200052357600080fd5b506200053289828a0162000416565b945050606087015192506200054a60808801620003f9565b91506200055a60a08801620003f9565b90509295509295509295565b6000815180845262000580816020860160208601620005fa565b601f01601f19169290920160200192915050565b604081526000620005a9604083018562000566565b8281036020840152620005bd818562000566565b95945050505050565b600060ff821660ff84168060ff03821115620005f257634e487b7160e01b600052601160045260246000fd5b019392505050565b60005b8381101562000617578181015183820152602001620005fd565b8381111562000627576000848401525b50505050565b600181811c908216806200064257607f821691505b602082108114156200066457634e487b7160e01b600052602260045260246000fd5b50919050565b634e487b7160e01b600052604160045260246000fd5b60805160601c611d52620006c26000396000818161054c0152818161079b01528181610ada01528181610ceb01528181610d8001526114140152611d526000f3fe608060405234801561001057600080fd5b50600436106102695760003560e01c806370a0823111610151578063b1c8db66116100c3578063ddceafa911610087578063ddceafa914610547578063e445d70a1461056e578063e5b824ec14610581578063f2fde38b14610594578063f54fc060146105a7578063f5c0b95f146105ba57600080fd5b8063b1c8db66146104d3578063c18172c4146104e6578063d37a9bb0146104f9578063d502562514610506578063dd62ed3e1461050e57600080fd5b806395d89b411161011557806395d89b41146104775780639e37878c1461047f578063a49a7cb114610492578063a77384c1146104a5578063a9059cbb146104b8578063b0d04c7a146104cb57600080fd5b806370a082311461042257806377e071ad1461043557806378f86afc146104485780637dc2cd981461045b5780638da5cb5b1461046457600080fd5b806337a8129c116101ea57806342966c68116101ae57806342966c68146103ba578063429c66f0146103cd5780635c707f07146103e05780635d6624b7146103f35780636091811714610406578063648bf7741461040f57600080fd5b806337a8129c1461036f5780633a1cdf32146103785780633a98ef391461038b5780634000aea01461039457806340c10f19146103a757600080fd5b806323b872dd1161023157806323b872dd146103065780632a0a4ed5146103195780632b3430991461032a578063313ce5671461033d57806332a7ae951461035c57600080fd5b806306fdde031461026e578063095ea7b31461028c5780630c6f0e5d146102af57806318160ddd146102df5780631f0f06aa146102f1575b600080fd5b6102766105cd565b6040516102839190611ba3565b60405180910390f35b61029f61029a36600461187f565b61065b565b6040519015158152602001610283565b6003546102c79061010090046001600160a01b031681565b6040516001600160a01b039091168152602001610283565b6002545b604051908152602001610283565b6103046102ff3660046119eb565b610671565b005b61029f6103143660046117d4565b6106e1565b6005546001600160a01b03166102c7565b61029f610338366004611786565b61073f565b60035461034a9060ff1681565b60405160ff9091168152602001610283565b61030461036a366004611786565b610752565b6102e3600a5481565b61030461038636600461187f565b6107fa565b6102e360095481565b61029f6103a23660046118a9565b610832565b6103046103b536600461187f565b6108d7565b6103046103c8366004611ace565b61090b565b6103046103db36600461192d565b610965565b6103046103ee366004611a6a565b6109bd565b6103046104013660046118a9565b6109f1565b6102e360045481565b61030461041d3660046117a1565b610acf565b6102e3610430366004611786565b610b2a565b6102e3610443366004611786565b610b4e565b610304610456366004611a2d565b610b99565b62ed4e006102e3565b6005546102c7906001600160a01b031681565b610276610bd6565b61029f61048d366004611786565b610be3565b6103046104a0366004611903565b610bf0565b6103046104b3366004611ace565b610c24565b61029f6104c636600461187f565b610c99565b6102e3610ca5565b61029f6104e1366004611786565b610cc2565b6103046104f4366004611786565b610ce0565b600b5461029f9060ff1681565b610276610d35565b6102e361051c3660046117a1565b6001600160a01b03918216600090815260016020908152604080832093909416825291909152205490565b6102c77f000000000000000000000000000000000000000000000000000000000000000081565b61030461057c3660046119b1565b610d42565b61030461058f366004611786565b610d75565b6103046105a2366004611786565b610dca565b6103046105b5366004611810565b610e50565b61029f6105c8366004611903565b610ee6565b600680546105da90611c8c565b80601f016020809104026020016040519081016040528092919081815260200182805461060690611c8c565b80156106535780601f1061062857610100808354040283529160200191610653565b820191906000526020600020905b81548152906001019060200180831161063657829003601f168201915b505050505081565b6000610668338484610ef2565b50600192915050565b6005546001600160a01b031633146106a45760405162461bcd60e51b815260040161069b90611bfb565b60405180910390fd5b7f07ce702fc13ca0620c174dab22996a6d5fd9e7accb663555a4e85323692706ba82826040516106d5929190611b8f565b60405180910390a15050565b60006106ee848484610f54565b6001600160a01b0384166000908152600160209081526040808320338452909152902054600160ff1b81101561073257610732853361072d8685611c75565b610ef2565b60019150505b9392505050565b600061074c826016610fdc565b92915050565b6005546001600160a01b0316331461077c5760405162461bcd60e51b815260040161069b90611bdb565b6040516332a7ae9560e01b81526001600160a01b0382811660048301527f000000000000000000000000000000000000000000000000000000000000000016906332a7ae9590602401600060405180830381600087803b1580156107df57600080fd5b505af11580156107f3573d6000803e3d6000fd5b5050505050565b6005546001600160a01b031633146108245760405162461bcd60e51b815260040161069b90611bfb565b61082e828261101c565b5050565b60008061083f8686610c99565b905080156108ce57604051635260769b60e11b81526001600160a01b0387169063a4c0ed3690610879903390899089908990600401611b5d565b602060405180830381600087803b15801561089357600080fd5b505af11580156108a7573d6000803e3d6000fd5b505050506040513d601f19601f820116820180604052508101906108cb91906119ce565b90505b95945050505050565b6005546001600160a01b031633146109015760405162461bcd60e51b815260040161069b90611bfb565b61082e8282611093565b61091433610b2a565b81111561094d5760405162461bcd60e51b815260206004820152600760248201526662616c616e636560c81b604482015260640161069b565b610958333083610f54565b610962308261109d565b50565b6005546001600160a01b0316331461098f5760405162461bcd60e51b815260040161069b90611bfb565b60005b828110156109b7576109a5848484610965565b806109af81611cc7565b915050610992565b50505050565b6005546001600160a01b031633146109e75760405162461bcd60e51b815260040161069b90611bfb565b61082e8282611133565b6005546001600160a01b03163314610a1b5760405162461bcd60e51b815260040161069b90611bfb565b6000610a2685610b2a565b905080841115610a6a5760405162461bcd60e51b815260206004820152600f60248201526e0c2dadeeadce840e8dede40d0d2ced608b1b604482015260640161069b565b83600a6000828254610a7c9190611c38565b92505081905550846001600160a01b03167f0a605cd1294f60fa3b73548ac68428f33300a051f225afcdcc75e56083c96ee7858585604051610ac093929190611c1e565b60405180910390a25050505050565b336001600160a01b037f00000000000000000000000000000000000000000000000000000000000000001614610b175760405162461bcd60e51b815260040161069b90611bdb565b61082e8282610b2585610b2a565b610f54565b6001600160a01b03166000908152602081905260409020546001600160e01b031690565b60006001600160a01b038216301415610b6957506001919050565b6003546001600160a01b03838116610100909204161415610b8c57505060045490565b506000919050565b919050565b6005546001600160a01b03163314610bc35760405162461bcd60e51b815260040161069b90611bfb565b805161082e9060089060208401906115ef565b600780546105da90611c8c565b600061074c826015610fdc565b6005546001600160a01b03163314610c1a5760405162461bcd60e51b815260040161069b90611bfb565b61082e828261118c565b6005546001600160a01b03163314610c4e5760405162461bcd60e51b815260040161069b90611bfb565b610c56610ca5565b811015610c945760405162461bcd60e51b815260206004820152600c60248201526b62656c6f7720737570706c7960a01b604482015260640161069b565b600955565b6000610738838361120a565b6000600a54610cb360025490565b610cbd9190611c75565b905090565b6000610ccf826014610fdc565b8061074c575061074c826016610fdc565b336001600160a01b037f00000000000000000000000000000000000000000000000000000000000000001614610d285760405162461bcd60e51b815260040161069b90611bdb565b61082e81600a6001611216565b600880546105da90611c8c565b6005546001600160a01b03163314610d6c5760405162461bcd60e51b815260040161069b90611bfb565b61096281611246565b336001600160a01b037f00000000000000000000000000000000000000000000000000000000000000001614610dbd5760405162461bcd60e51b815260040161069b90611bdb565b61082e81600a6000611216565b6005546001600160a01b03163314610df45760405162461bcd60e51b815260040161069b90611bfb565b6005546040516001600160a01b038084169216907f8be0079c531659141344cd1fd0a4f28419497f9722a3daafe3b4186f6b6457e090600090a3600580546001600160a01b0319166001600160a01b0392909216919091179055565b610e5a84846108d7565b604051635260769b60e11b81526001600160a01b0385169063a4c0ed3690610e8c908890879087908790600401611b5d565b602060405180830381600087803b158015610ea657600080fd5b505af1158015610eba573d6000803e3d6000fd5b505050506040513d601f19601f82011682018060405250810190610ede91906119ce565b505050505050565b60006107388383610fdc565b6001600160a01b0383811660008181526001602090815260408083209487168084529482529182902085905590518481527f8c5be1e5ebec7d5bd14f71427d1e84f3dd0314c0f7b2291e5b200ac8c7c3b92591015b60405180910390a3505050565b610f5f838383611270565b6001600160a01b03831660009081526020819052604081208054839290610f87908490611c75565b90915550610f9790508282611280565b816001600160a01b0316836001600160a01b03167fddf252ad1be2c89b69c2b068fc378daa952ba7f163c4a11628f55a4df523b3ef83604051610f4791815260200190565b600080610fea8360e0611c50565b6001600160a01b038516600090815260208190526040902054600160ff929092169190911b9081161491505092915050565b60038054610100600160a81b0319166101006001600160a01b0385811682029290921792839055909104166110545760006004555050565b6000811161108d5760405162461bcd60e51b815260040161069b906020808252600490820152637a65726f60e01b604082015260600190565b60045550565b61082e8282611356565b6110a982600083611270565b80600260008282546110bb9190611c75565b90915550506001600160a01b038216600090815260208190526040812080548392906110e8908490611c75565b90915550506040518181526000906001600160a01b038416907fddf252ad1be2c89b69c2b068fc378daa952ba7f163c4a11628f55a4df523b3ef906020015b60405180910390a35050565b81516111469060079060208501906115ef565b50805161115a9060069060208401906115ef565b507f6c20b91d1723b78732eba64ff11ebd7966a6e4af568a00fa4f6b72c20f58b02a81836040516106d5929190611bb6565b61119e82601460ff8416600114611216565b506111b182601560ff8416600214611216565b506111c482601660ff8416600414611216565b5060405160ff821681526001600160a01b038316907fe423d7d31023dbacefed7c937785d0012ad8f314381295efebfc0471d2c434549060200160405180910390a25050565b600061073883836113ac565b60008115156112258585610fdc565b15151461123e576112368484611481565b506001610738565b506000610738565b600b805460ff191660011790558015611265576109626000600461118c565b61096260008061118c565b61127b8383836114bf565b505050565b6001600160a01b0382166112bc5760405162461bcd60e51b815260206004820152600360248201526203078360ec1b604482015260640161069b565b6001600160a01b038216600090815260208190526040812054906001600160e01b03198216906112ec8484611c38565b90506001600160e01b031981168281146113335760405162461bcd60e51b81526020600482015260086024820152676f766572666c6f7760c01b604482015260640161069b565b506001600160a01b03909416600090815260208190526040902093909355505050565b60095481611362610ca5565b61136c9190611c38565b11156113a25760405162461bcd60e51b81526020600482015260056024820152641d1bdd185b60da1b604482015260640161069b565b61082e828261152a565b60006113b88383611596565b6113ef5760405162461bcd60e51b81526020600482015260086024820152673a3930b739b332b960c11b604482015260640161069b565b6113fa33600a610fdc565b15610668576040516304d301a360e41b81523360048201527f00000000000000000000000000000000000000000000000000000000000000006001600160a01b031690634d301a3090602401600060405180830381600087803b15801561146057600080fd5b505af1158015611474573d6000803e3d6000fd5b5050505050600192915050565b600061148e8260e0611c50565b6001600160a01b039390931660009081526020819052604090208054600160ff9095169490941b9093189092555050565b6114c882610cc2565b156114d257505050565b6114db82610be3565b156114e95761127b826115a3565b6114f28361073f565b156115025761127b826001610bf0565b61150d836014610fdc565b8061151c575061151c83610be3565b1561127b5761127b836115a3565b61153660008383611270565b80600260008282546115489190611c38565b9091555061155890508282611280565b6040518181526001600160a01b038316906000907fddf252ad1be2c89b69c2b068fc378daa952ba7f163c4a11628f55a4df523b3ef90602001611127565b6000610668338484610f54565b600b5460ff16156115e45760405162461bcd60e51b815260206004820152600b60248201526a1b9bdd08185b1b1bddd95960aa1b604482015260640161069b565b610962816000610bf0565b8280546115fb90611c8c565b90600052602060002090601f01602090048101928261161d5760008555611663565b82601f1061163657805160ff1916838001178555611663565b82800160010185558215611663579182015b82811115611663578251825591602001919060010190611648565b5061166f929150611673565b5090565b5b8082111561166f5760008155600101611674565b80356001600160a01b0381168114610b9457600080fd5b60008083601f8401126116b157600080fd5b50813567ffffffffffffffff8111156116c957600080fd5b6020830191508360208285010111156116e157600080fd5b9250929050565b600082601f8301126116f957600080fd5b813567ffffffffffffffff8082111561171457611714611cf8565b604051601f8301601f19908116603f0116810190828211818310171561173c5761173c611cf8565b8160405283815286602085880101111561175557600080fd5b836020870160208301376000602085830101528094505050505092915050565b803560ff81168114610b9457600080fd5b60006020828403121561179857600080fd5b61073882611688565b600080604083850312156117b457600080fd5b6117bd83611688565b91506117cb60208401611688565b90509250929050565b6000806000606084860312156117e957600080fd5b6117f284611688565b925061180060208501611688565b9150604084013590509250925092565b60008060008060006080868803121561182857600080fd5b61183186611688565b945061183f60208701611688565b935060408601359250606086013567ffffffffffffffff81111561186257600080fd5b61186e8882890161169f565b969995985093965092949392505050565b6000806040838503121561189257600080fd5b61189b83611688565b946020939093013593505050565b600080600080606085870312156118bf57600080fd5b6118c885611688565b935060208501359250604085013567ffffffffffffffff8111156118eb57600080fd5b6118f78782880161169f565b95989497509550505050565b6000806040838503121561191657600080fd5b61191f83611688565b91506117cb60208401611775565b60008060006040848603121561194257600080fd5b833567ffffffffffffffff8082111561195a57600080fd5b818601915086601f83011261196e57600080fd5b81358181111561197d57600080fd5b8760208260051b850101111561199257600080fd5b6020928301955093506119a89186019050611775565b90509250925092565b6000602082840312156119c357600080fd5b813561073881611d0e565b6000602082840312156119e057600080fd5b815161073881611d0e565b600080602083850312156119fe57600080fd5b823567ffffffffffffffff811115611a1557600080fd5b611a218582860161169f565b90969095509350505050565b600060208284031215611a3f57600080fd5b813567ffffffffffffffff811115611a5657600080fd5b611a62848285016116e8565b949350505050565b60008060408385031215611a7d57600080fd5b823567ffffffffffffffff80821115611a9557600080fd5b611aa1868387016116e8565b93506020850135915080821115611ab757600080fd5b50611ac4858286016116e8565b9150509250929050565b600060208284031215611ae057600080fd5b5035919050565b81835281816020850137506000828201602090810191909152601f909101601f19169091010190565b6000815180845260005b81811015611b3657602081850181015186830182015201611b1a565b81811115611b48576000602083870101525b50601f01601f19169290920160200192915050565b60018060a01b0385168152836020820152606060408201526000611b85606083018486611ae7565b9695505050505050565b602081526000611a62602083018486611ae7565b6020815260006107386020830184611b10565b604081526000611bc96040830185611b10565b82810360208401526108ce8185611b10565b60208082526006908201526539b2b73232b960d11b604082015260600190565b6020808252600990820152683737ba1037bbb732b960b91b604082015260600190565b8381526040602082015260006108ce604083018486611ae7565b60008219821115611c4b57611c4b611ce2565b500190565b600060ff821660ff84168060ff03821115611c6d57611c6d611ce2565b019392505050565b600082821015611c8757611c87611ce2565b500390565b600181811c90821680611ca057607f821691505b60208210811415611cc157634e487b7160e01b600052602260045260246000fd5b50919050565b6000600019821415611cdb57611cdb611ce2565b5060010190565b634e487b7160e01b600052601160045260246000fd5b634e487b7160e01b600052604160045260246000fd5b801515811461096257600080fdfea2646970667358221220a0ac4988fd6b98e79bd14481f9cff75087e0b24379bb20ade922d9d810a2341664736f6c63430008070033",
  "devdoc": {
    "kind": "dev",
    "methods": {
      "allowance(address,address)": {
        "details": "See `IERC20.allowance`."
      },
      "approve(address,uint256)": {
        "details": "See `IERC20.approve`. Requirements: - `spender` cannot be the zero address."
      },
      "balanceOf(address)": {
        "details": "See `IERC20.balanceOf`."
      },
      "totalSupply()": {
        "details": "See `IERC20.totalSupply`."
      },
      "transferFrom(address,address,uint256)": {
        "details": "See `IERC20.transferFrom`. Emits an `Approval` event indicating the updated allowance. This is not required by the EIP. See the note at the beginning of `ERC20`; Requirements: - `sender` and `recipient` cannot be the zero address. - `sender` must have a balance of at least `value`. - the caller must have allowance for `sender`'s tokens of at least `amount`."
      },
      "transferOwnership(address)": {
        "details": "Transfers ownership of the contract to a new account (`newOwner`). Can only be called by the current owner."
      }
    },
    "version": 1
  },
  "userdoc": {
    "kind": "user",
    "methods": {
      "announcement(string)": {
        "notice": "Allows the issuer to make public announcements that are visible on the blockchain."
      },
      "burn(uint256)": {
        "notice": "Transfers _amount tokens to the company and burns them. The meaning of this operation depends on the circumstances and the fate of the shares does not necessarily follow the fate of the tokens. For example, the company itself might call this function to implement a formal decision to destroy some of the outstanding shares. Also, this function might be called by an owner to return the shares to the company and get them back in another form under an according agreement (e.g. printed certificates or tokens on a different blockchain). It is not recommended to call this function without having agreed with the company on the further fate of the shares in question."
      },
      "canReceiveFromAnyone(address)": {
        "notice": "If true, this address is allowlisted and can only transfer tokens to other allowlisted addresses."
      },
      "declareInvalid(address,uint256,string)": {
        "notice": "Signals that the indicated tokens have been declared invalid (e.g. by a court ruling in accordance with article 973g of the Swiss Code of Obligations) and got detached from the underlying shares. Invalid tokens do not carry any shareholder rights any more. This function is purely declarative. It does not technically immobilize the affected tokens as that would give the issuer too much power."
      },
      "getCollateralRate(address)": {
        "notice": "Returns the collateral rate for the given collateral type and 0 if that type of collateral is not accepted. By default, only the token itself is accepted at a rate of 1:1. Subclasses should override this method if they want to add additional types of collateral."
      },
      "isForbidden(address)": {
        "notice": "If true, this address can only transfer tokens to allowlisted addresses and not receive from anyone."
      },
      "isPowerlisted(address)": {
        "notice": "If true, this address can automatically allowlist target addresses if necessary."
      },
      "mintAndCall(address,address,uint256,bytes)": {
        "notice": "Allows the company to tokenize shares and transfer them e.g to the draggable contract and wrap them. If these shares are newly created, setTotalShares must be called first in order to adjust the total number of shares."
      },
      "setApplicable(bool)": {
        "notice": "Configures whether the allowlisting is applied. Also sets the powerlist and allowlist flags on the null address accordingly. It is recommended to also deactivate the powerlist flag on other addresses."
      },
      "setCustomClaimCollateral(address,uint256)": {
        "notice": "See parent method for collateral requirements."
      },
      "setTotalShares(uint256)": {
        "notice": "Declares the number of total shares, including those that have not been tokenized and those that are held by the company itself. This number can be substiantially higher than totalSupply() in case not all shares have been tokenized. Also, it can be lower than totalSupply() in case some tokens have become invalid."
      },
      "totalValidSupply()": {
        "notice": "The total number of valid tokens in circulation. In case some tokens have been declared invalid, this number might be lower than totalSupply(). Also, it will always be lower than or equal to totalShares()."
      }
    },
    "version": 1
  },
  "storageLayout": {
    "storage": [
      {
        "astId": 521,
        "contract": "src/shares/AllowlistShares.sol:AllowlistShares",
        "label": "_balances",
        "offset": 0,
        "slot": "0",
        "type": "t_mapping(t_address,t_uint256)"
      },
      {
        "astId": 527,
        "contract": "src/shares/AllowlistShares.sol:AllowlistShares",
        "label": "_allowances",
        "offset": 0,
        "slot": "1",
        "type": "t_mapping(t_address,t_mapping(t_address,t_uint256))"
      },
      {
        "astId": 529,
        "contract": "src/shares/AllowlistShares.sol:AllowlistShares",
        "label": "_totalSupply",
        "offset": 0,
        "slot": "2",
        "type": "t_uint256"
      },
      {
        "astId": 532,
        "contract": "src/shares/AllowlistShares.sol:AllowlistShares",
        "label": "decimals",
        "offset": 0,
        "slot": "3",
        "type": "t_uint8"
      },
      {
        "astId": 6328,
        "contract": "src/shares/AllowlistShares.sol:AllowlistShares",
        "label": "customCollateralAddress",
        "offset": 1,
        "slot": "3",
        "type": "t_address"
      },
      {
        "astId": 6330,
        "contract": "src/shares/AllowlistShares.sol:AllowlistShares",
        "label": "customCollateralRate",
        "offset": 0,
        "slot": "4",
        "type": "t_uint256"
      },
      {
        "astId": 8231,
        "contract": "src/shares/AllowlistShares.sol:AllowlistShares",
        "label": "owner",
        "offset": 0,
        "slot": "5",
        "type": "t_address"
      },
      {
        "astId": 1017,
        "contract": "src/shares/AllowlistShares.sol:AllowlistShares",
        "label": "name",
        "offset": 0,
        "slot": "6",
        "type": "t_string_storage"
      },
      {
        "astId": 1020,
        "contract": "src/shares/AllowlistShares.sol:AllowlistShares",
        "label": "symbol",
        "offset": 0,
        "slot": "7",
        "type": "t_string_storage"
      },
      {
        "astId": 7776,
        "contract": "src/shares/AllowlistShares.sol:AllowlistShares",
        "label": "terms",
        "offset": 0,
        "slot": "8",
        "type": "t_string_storage"
      },
      {
        "astId": 7779,
        "contract": "src/shares/AllowlistShares.sol:AllowlistShares",
        "label": "totalShares",
        "offset": 0,
        "slot": "9",
        "type": "t_uint256"
      },
      {
        "astId": 7782,
        "contract": "src/shares/AllowlistShares.sol:AllowlistShares",
        "label": "invalidTokens",
        "offset": 0,
        "slot": "10",
        "type": "t_uint256"
      },
      {
        "astId": 209,
        "contract": "src/shares/AllowlistShares.sol:AllowlistShares",
        "label": "restrictTransfers",
        "offset": 0,
        "slot": "11",
        "type": "t_bool"
      }
    ],
    "types": {
      "t_address": {
        "encoding": "inplace",
        "label": "address",
        "numberOfBytes": "20"
      },
      "t_bool": {
        "encoding": "inplace",
        "label": "bool",
        "numberOfBytes": "1"
      },
      "t_mapping(t_address,t_mapping(t_address,t_uint256))": {
        "encoding": "mapping",
        "key": "t_address",
        "label": "mapping(address => mapping(address => uint256))",
        "numberOfBytes": "32",
        "value": "t_mapping(t_address,t_uint256)"
      },
      "t_mapping(t_address,t_uint256)": {
        "encoding": "mapping",
        "key": "t_address",
        "label": "mapping(address => uint256)",
        "numberOfBytes": "32",
        "value": "t_uint256"
      },
      "t_string_storage": {
        "encoding": "bytes",
        "label": "string",
        "numberOfBytes": "32"
      },
      "t_uint256": {
        "encoding": "inplace",
        "label": "uint256",
        "numberOfBytes": "32"
      },
      "t_uint8": {
        "encoding": "inplace",
        "label": "uint8",
        "numberOfBytes": "1"
      }
    }
  }
}