{
  "address": "0x9566083Cfce8615c4861Bc36cCBa98B172031277",
  "abi": [
    {
      "inputs": [
        {
          "internalType": "string",
          "name": "_terms",
          "type": "string"
        },
        {
          "internalType": "address",
          "name": "_wrappedToken",
          "type": "address"
        },
        {
          "internalType": "uint256",
          "name": "_quorum",
          "type": "uint256"
        },
        {
          "internalType": "uint256",
          "name": "_votePeriod",
          "type": "uint256"
        },
        {
          "internalType": "address",
          "name": "_recoveryHub",
          "type": "address"
        },
        {
          "internalType": "address",
          "name": "_offerFactory",
          "type": "address"
        },
        {
          "internalType": "address",
          "name": "_oracle",
          "type": "address"
        },
        {
          "internalType": "address",
          "name": "_owner",
          "type": "address"
        }
      ],
      "stateMutability": "nonpayable",
      "type": "constructor"
    },
    {
      "anonymous": false,
      "inputs": [
        {
          "indexed": true,
          "internalType": "address",
          "name": "account",
          "type": "address"
        },
        {
          "indexed": false,
          "internalType": "uint8",
          "name": "addressType",
          "type": "uint8"
        }
      ],
      "name": "AddressTypeUpdate",
      "type": "event"
    },
    {
      "anonymous": false,
      "inputs": [
        {
          "indexed": true,
          "internalType": "address",
          "name": "owner",
          "type": "address"
        },
        {
          "indexed": true,
          "internalType": "address",
          "name": "spender",
          "type": "address"
        },
        {
          "indexed": false,
          "internalType": "uint256",
          "name": "value",
          "type": "uint256"
        }
      ],
      "name": "Approval",
      "type": "event"
    },
    {
      "anonymous": false,
      "inputs": [
        {
          "indexed": false,
          "internalType": "address",
          "name": "newContractAddress",
          "type": "address"
        },
        {
          "indexed": false,
          "internalType": "uint256",
          "name": "yesVotes",
          "type": "uint256"
        },
        {
          "indexed": false,
          "internalType": "uint256",
          "name": "oracleVotes",
          "type": "uint256"
        },
        {
          "indexed": false,
          "internalType": "uint256",
          "name": "totalVotingPower",
          "type": "uint256"
        }
      ],
      "name": "MigrationSucceeded",
      "type": "event"
    },
    {
      "anonymous": false,
      "inputs": [
        {
          "indexed": false,
          "internalType": "string",
          "name": "name",
          "type": "string"
        },
        {
          "indexed": false,
          "internalType": "string",
          "name": "symbol",
          "type": "string"
        }
      ],
      "name": "NameChanged",
      "type": "event"
    },
    {
      "anonymous": false,
      "inputs": [
        {
          "indexed": true,
          "internalType": "address",
          "name": "previousOwner",
          "type": "address"
        },
        {
          "indexed": true,
          "internalType": "address",
          "name": "newOwner",
          "type": "address"
        }
      ],
      "name": "OwnershipTransferred",
      "type": "event"
    },
    {
      "anonymous": false,
      "inputs": [
        {
          "indexed": true,
          "internalType": "address",
          "name": "from",
          "type": "address"
        },
        {
          "indexed": true,
          "internalType": "address",
          "name": "to",
          "type": "address"
        },
        {
          "indexed": false,
          "internalType": "uint256",
          "name": "value",
          "type": "uint256"
        }
      ],
      "name": "Transfer",
      "type": "event"
    },
    {
      "inputs": [
        {
          "internalType": "address",
          "name": "owner",
          "type": "address"
        },
        {
          "internalType": "address",
          "name": "spender",
          "type": "address"
        }
      ],
      "name": "allowance",
      "outputs": [
        {
          "internalType": "uint256",
          "name": "",
          "type": "uint256"
        }
      ],
      "stateMutability": "view",
      "type": "function"
    },
    {
      "inputs": [
        {
          "internalType": "address",
          "name": "spender",
          "type": "address"
        },
        {
          "internalType": "uint256",
          "name": "value",
          "type": "uint256"
        }
      ],
      "name": "approve",
      "outputs": [
        {
          "internalType": "bool",
          "name": "",
          "type": "bool"
        }
      ],
      "stateMutability": "nonpayable",
      "type": "function"
    },
    {
      "inputs": [
        {
          "internalType": "address",
          "name": "account",
          "type": "address"
        }
      ],
      "name": "balanceOf",
      "outputs": [
        {
          "internalType": "uint256",
          "name": "",
          "type": "uint256"
        }
      ],
      "stateMutability": "view",
      "type": "function"
    },
    {
      "inputs": [
        {
          "internalType": "uint256",
          "name": "amount",
          "type": "uint256"
        }
      ],
      "name": "burn",
      "outputs": [],
      "stateMutability": "nonpayable",
      "type": "function"
    },
    {
      "inputs": [
        {
          "internalType": "address",
          "name": "account",
          "type": "address"
        }
      ],
      "name": "canReceiveFromAnyone",
      "outputs": [
        {
          "internalType": "bool",
          "name": "",
          "type": "bool"
        }
      ],
      "stateMutability": "view",
      "type": "function"
    },
    {
      "inputs": [],
      "name": "claimPeriod",
      "outputs": [
        {
          "internalType": "uint256",
          "name": "",
          "type": "uint256"
        }
      ],
      "stateMutability": "pure",
      "type": "function"
    },
    {
      "inputs": [],
      "name": "customCollateralAddress",
      "outputs": [
        {
          "internalType": "address",
          "name": "",
          "type": "address"
        }
      ],
      "stateMutability": "view",
      "type": "function"
    },
    {
      "inputs": [],
      "name": "customCollateralRate",
      "outputs": [
        {
          "internalType": "uint256",
          "name": "",
          "type": "uint256"
        }
      ],
      "stateMutability": "view",
      "type": "function"
    },
    {
      "inputs": [],
      "name": "decimals",
      "outputs": [
        {
          "internalType": "uint8",
          "name": "",
          "type": "uint8"
        }
      ],
      "stateMutability": "view",
      "type": "function"
    },
    {
      "inputs": [
        {
          "internalType": "address",
          "name": "lostAddress",
          "type": "address"
        }
      ],
      "name": "deleteClaim",
      "outputs": [],
      "stateMutability": "nonpayable",
      "type": "function"
    },
    {
      "inputs": [
        {
          "internalType": "address",
          "name": "buyer",
          "type": "address"
        },
        {
          "internalType": "address",
          "name": "currency",
          "type": "address"
        }
      ],
      "name": "drag",
      "outputs": [],
      "stateMutability": "nonpayable",
      "type": "function"
    },
    {
      "inputs": [],
      "name": "factory",
      "outputs": [
        {
          "internalType": "contract IOfferFactory",
          "name": "",
          "type": "address"
        }
      ],
      "stateMutability": "view",
      "type": "function"
    },
    {
      "inputs": [],
      "name": "getClaimDeleter",
      "outputs": [
        {
          "internalType": "address",
          "name": "",
          "type": "address"
        }
      ],
      "stateMutability": "view",
      "type": "function"
    },
    {
      "inputs": [
        {
          "internalType": "address",
          "name": "collateralType",
          "type": "address"
        }
      ],
      "name": "getCollateralRate",
      "outputs": [
        {
          "internalType": "uint256",
          "name": "",
          "type": "uint256"
        }
      ],
      "stateMutability": "view",
      "type": "function"
    },
    {
      "inputs": [],
      "name": "getOracle",
      "outputs": [
        {
          "internalType": "address",
          "name": "",
          "type": "address"
        }
      ],
      "stateMutability": "view",
      "type": "function"
    },
    {
      "inputs": [
        {
          "internalType": "address",
          "name": "account",
          "type": "address"
        },
        {
          "internalType": "uint8",
          "name": "number",
          "type": "uint8"
        }
      ],
      "name": "hasFlag",
      "outputs": [
        {
          "internalType": "bool",
          "name": "",
          "type": "bool"
        }
      ],
      "stateMutability": "view",
      "type": "function"
    },
    {
      "inputs": [],
      "name": "isBinding",
      "outputs": [
        {
          "internalType": "bool",
          "name": "",
          "type": "bool"
        }
      ],
      "stateMutability": "view",
      "type": "function"
    },
    {
      "inputs": [
        {
          "internalType": "address",
          "name": "account",
          "type": "address"
        }
      ],
      "name": "isForbidden",
      "outputs": [
        {
          "internalType": "bool",
          "name": "",
          "type": "bool"
        }
      ],
      "stateMutability": "view",
      "type": "function"
    },
    {
      "inputs": [
        {
          "internalType": "address",
          "name": "account",
          "type": "address"
        }
      ],
      "name": "isPowerlisted",
      "outputs": [
        {
          "internalType": "bool",
          "name": "",
          "type": "bool"
        }
      ],
      "stateMutability": "view",
      "type": "function"
    },
    {
      "inputs": [
        {
          "internalType": "bytes32",
          "name": "salt",
          "type": "bytes32"
        },
        {
          "internalType": "uint256",
          "name": "pricePerShare",
          "type": "uint256"
        },
        {
          "internalType": "address",
          "name": "currency",
          "type": "address"
        }
      ],
      "name": "makeAcquisitionOffer",
      "outputs": [],
      "stateMutability": "payable",
      "type": "function"
    },
    {
      "inputs": [],
      "name": "migrate",
      "outputs": [],
      "stateMutability": "nonpayable",
      "type": "function"
    },
    {
      "inputs": [
        {
          "internalType": "address",
          "name": "target",
          "type": "address"
        },
        {
          "internalType": "uint256",
          "name": "externalSupportingVotes",
          "type": "uint256"
        }
      ],
      "name": "migrateWithExternalApproval",
      "outputs": [],
      "stateMutability": "nonpayable",
      "type": "function"
    },
    {
      "inputs": [],
      "name": "name",
      "outputs": [
        {
          "internalType": "string",
          "name": "",
          "type": "string"
        }
      ],
      "stateMutability": "view",
      "type": "function"
    },
    {
      "inputs": [
        {
          "internalType": "address",
          "name": "target",
          "type": "address"
        }
      ],
      "name": "notifyClaimDeleted",
      "outputs": [],
      "stateMutability": "nonpayable",
      "type": "function"
    },
    {
      "inputs": [
        {
          "internalType": "address",
          "name": "target",
          "type": "address"
        }
      ],
      "name": "notifyClaimMade",
      "outputs": [],
      "stateMutability": "nonpayable",
      "type": "function"
    },
    {
      "inputs": [],
      "name": "notifyOfferEnded",
      "outputs": [],
      "stateMutability": "nonpayable",
      "type": "function"
    },
    {
      "inputs": [
        {
          "internalType": "address",
          "name": "voter",
          "type": "address"
        }
      ],
      "name": "notifyVoted",
      "outputs": [],
      "stateMutability": "nonpayable",
      "type": "function"
    },
    {
      "inputs": [],
      "name": "offer",
      "outputs": [
        {
          "internalType": "contract IOffer",
          "name": "",
          "type": "address"
        }
      ],
      "stateMutability": "view",
      "type": "function"
    },
    {
      "inputs": [
        {
          "internalType": "address",
          "name": "from",
          "type": "address"
        },
        {
          "internalType": "uint256",
          "name": "amount",
          "type": "uint256"
        },
        {
          "internalType": "bytes",
          "name": "",
          "type": "bytes"
        }
      ],
      "name": "onTokenTransfer",
      "outputs": [
        {
          "internalType": "bool",
          "name": "",
          "type": "bool"
        }
      ],
      "stateMutability": "nonpayable",
      "type": "function"
    },
    {
      "inputs": [],
      "name": "owner",
      "outputs": [
        {
          "internalType": "address",
          "name": "",
          "type": "address"
        }
      ],
      "stateMutability": "view",
      "type": "function"
    },
    {
      "inputs": [],
      "name": "quorum",
      "outputs": [
        {
          "internalType": "uint256",
          "name": "",
          "type": "uint256"
        }
      ],
      "stateMutability": "view",
      "type": "function"
    },
    {
      "inputs": [
        {
          "internalType": "address",
          "name": "oldAddress",
          "type": "address"
        },
        {
          "internalType": "address",
          "name": "newAddress",
          "type": "address"
        }
      ],
      "name": "recover",
      "outputs": [],
      "stateMutability": "nonpayable",
      "type": "function"
    },
    {
      "inputs": [],
      "name": "recovery",
      "outputs": [
        {
          "internalType": "contract IRecoveryHub",
          "name": "",
          "type": "address"
        }
      ],
      "stateMutability": "view",
      "type": "function"
    },
    {
      "inputs": [],
      "name": "restrictTransfers",
      "outputs": [
        {
          "internalType": "bool",
          "name": "",
          "type": "bool"
        }
      ],
      "stateMutability": "view",
      "type": "function"
    },
    {
      "inputs": [
        {
          "internalType": "bool",
          "name": "transferRestrictionsApplicable",
          "type": "bool"
        }
      ],
      "name": "setApplicable",
      "outputs": [],
      "stateMutability": "nonpayable",
      "type": "function"
    },
    {
      "inputs": [
        {
          "internalType": "address",
          "name": "newOracle",
          "type": "address"
        }
      ],
      "name": "setOracle",
      "outputs": [],
      "stateMutability": "nonpayable",
      "type": "function"
    },
    {
      "inputs": [
        {
          "internalType": "address[]",
          "name": "addressesToAdd",
          "type": "address[]"
        },
        {
          "internalType": "uint8",
          "name": "value",
          "type": "uint8"
        }
      ],
      "name": "setType",
      "outputs": [],
      "stateMutability": "nonpayable",
      "type": "function"
    },
    {
      "inputs": [
        {
          "internalType": "address",
          "name": "account",
          "type": "address"
        },
        {
          "internalType": "uint8",
          "name": "typeNumber",
          "type": "uint8"
        }
      ],
      "name": "setType",
      "outputs": [],
      "stateMutability": "nonpayable",
      "type": "function"
    },
    {
      "inputs": [],
      "name": "symbol",
      "outputs": [
        {
          "internalType": "string",
          "name": "",
          "type": "string"
        }
      ],
      "stateMutability": "view",
      "type": "function"
    },
    {
      "inputs": [],
      "name": "terms",
      "outputs": [
        {
          "internalType": "string",
          "name": "",
          "type": "string"
        }
      ],
      "stateMutability": "view",
      "type": "function"
    },
    {
      "inputs": [],
      "name": "totalSupply",
      "outputs": [
        {
          "internalType": "uint256",
          "name": "",
          "type": "uint256"
        }
      ],
      "stateMutability": "view",
      "type": "function"
    },
    {
      "inputs": [],
      "name": "totalVotingTokens",
      "outputs": [
        {
          "internalType": "uint256",
          "name": "",
          "type": "uint256"
        }
      ],
      "stateMutability": "view",
      "type": "function"
    },
    {
      "inputs": [
        {
          "internalType": "address",
          "name": "to",
          "type": "address"
        },
        {
          "internalType": "uint256",
          "name": "value",
          "type": "uint256"
        }
      ],
      "name": "transfer",
      "outputs": [
        {
          "internalType": "bool",
          "name": "",
          "type": "bool"
        }
      ],
      "stateMutability": "nonpayable",
      "type": "function"
    },
    {
      "inputs": [
        {
          "internalType": "address",
          "name": "recipient",
          "type": "address"
        },
        {
          "internalType": "uint256",
          "name": "amount",
          "type": "uint256"
        },
        {
          "internalType": "bytes",
          "name": "data",
          "type": "bytes"
        }
      ],
      "name": "transferAndCall",
      "outputs": [
        {
          "internalType": "bool",
          "name": "",
          "type": "bool"
        }
      ],
      "stateMutability": "nonpayable",
      "type": "function"
    },
    {
      "inputs": [
        {
          "internalType": "address",
          "name": "sender",
          "type": "address"
        },
        {
          "internalType": "address",
          "name": "recipient",
          "type": "address"
        },
        {
          "internalType": "uint256",
          "name": "amount",
          "type": "uint256"
        }
      ],
      "name": "transferFrom",
      "outputs": [
        {
          "internalType": "bool",
          "name": "",
          "type": "bool"
        }
      ],
      "stateMutability": "nonpayable",
      "type": "function"
    },
    {
      "inputs": [
        {
          "internalType": "address",
          "name": "newOwner",
          "type": "address"
        }
      ],
      "name": "transferOwnership",
      "outputs": [],
      "stateMutability": "nonpayable",
      "type": "function"
    },
    {
      "inputs": [
        {
          "internalType": "uint256",
          "name": "amount",
          "type": "uint256"
        }
      ],
      "name": "unwrap",
      "outputs": [],
      "stateMutability": "nonpayable",
      "type": "function"
    },
    {
      "inputs": [],
      "name": "unwrapConversionFactor",
      "outputs": [
        {
          "internalType": "uint256",
          "name": "",
          "type": "uint256"
        }
      ],
      "stateMutability": "view",
      "type": "function"
    },
    {
      "inputs": [],
      "name": "votePeriod",
      "outputs": [
        {
          "internalType": "uint256",
          "name": "",
          "type": "uint256"
        }
      ],
      "stateMutability": "view",
      "type": "function"
    },
    {
      "inputs": [
        {
          "internalType": "address",
          "name": "voter",
          "type": "address"
        }
      ],
      "name": "votingPower",
      "outputs": [
        {
          "internalType": "uint256",
          "name": "",
          "type": "uint256"
        }
      ],
      "stateMutability": "view",
      "type": "function"
    },
    {
      "inputs": [
        {
          "internalType": "address",
          "name": "shareholder",
          "type": "address"
        },
        {
          "internalType": "uint256",
          "name": "amount",
          "type": "uint256"
        }
      ],
      "name": "wrap",
      "outputs": [],
      "stateMutability": "nonpayable",
      "type": "function"
    },
    {
      "inputs": [],
      "name": "wrapped",
      "outputs": [
        {
          "internalType": "contract IERC20",
          "name": "",
          "type": "address"
        }
      ],
      "stateMutability": "view",
      "type": "function"
    }
  ],
  "transactionHash": "0xece053acf6be0df84eb65a7d3df63d06faeb3a2f3a649046b623847e805a5f9f",
  "args": [
    "https://aydea.ch",
    "0xfb330379134EA1EfCE9Cf6F28E2CcB917899e007",
    75000,
    5184000,
    "0x9b886c04CE3CFB74E644DE92d65CfB873636e1fb",
    "0x6BE5C95F114e5e470c10Ddfb5Df8C6BF3F429Ba9",
    "0x6164DCecCfA4202aF89DA24Fa9b933Ec3fD05adA",
    "0x6164DCecCfA4202aF89DA24Fa9b933Ec3fD05adA"
  ],
  "numDeployments": 1,
  "solcInputHash": "8fd3094a5d8f17fb757a61e7ab4e0c35",
  "bytecode": "0x61010060405260006007553480156200001757600080fd5b506040516200306f3803806200306f8339810160408190526200003a9162000476565b878787878787878585858484878d600080600360006101000a81548160ff021916908360ff1602179055505080600360016101000a8154816001600160a01b0302191690836001600160a01b03160217905550600360019054906101000a90046001600160a01b03166001600160a01b031660006001600160a01b03167f8be0079c531659141344cd1fd0a4f28419497f9722a3daafe3b4186f6b6457e060405160405180910390a350620000f0600162000241565b6001600160601b0319606091821b8116608052600680546001600160a01b039889166001600160a01b03199182161790915560c09690965260e0949094529190911b90911660a0526009805491909316911617905586516200015a90600a9060208a0190620003b3565b50604051636427ed9760e01b8152600060048201526001600160a01b03841690636427ed9790602401600060405180830381600087803b1580156200019e57600080fd5b505af1158015620001b3573d6000803e3d6000fd5b505050505050505050505087600a9080519060200190620001d6929190620003b3565b50604051636427ed9760e01b8152600060048201526001600160a01b03851690636427ed9790602401600060405180830381600087803b1580156200021a57600080fd5b505af11580156200022f573d6000803e3d6000fd5b5050505050505050505050506200064c565b6003805460ff60a81b1916600160a81b17905580156200026c57620002696000600462000274565b50565b620002696000805b6200028882601460ff8416600114620002f8565b506200029d82601560ff8416600214620002f8565b50620002b282601660ff8416600414620002f8565b5060405160ff821681526001600160a01b038316907fe423d7d31023dbacefed7c937785d0012ad8f314381295efebfc0471d2c434549060200160405180910390a25050565b600081151562000309858562000331565b15151462000326576200031d848462000373565b5060016200032a565b5060005b9392505050565b600080620003418360e0620005c5565b6001600160a01b038516600090815260208190526040902054600160ff929092169190911b9081161491505092915050565b6000620003828260e0620005c5565b6001600160a01b039390931660009081526020819052604090208054600160ff9095169490941b9093189092555050565b828054620003c190620005f9565b90600052602060002090601f016020900481019282620003e5576000855562000430565b82601f106200040057805160ff191683800117855562000430565b8280016001018555821562000430579182015b828111156200043057825182559160200191906001019062000413565b506200043e92915062000442565b5090565b5b808211156200043e576000815560010162000443565b80516001600160a01b03811681146200047157600080fd5b919050565b600080600080600080600080610100898b0312156200049457600080fd5b88516001600160401b0380821115620004ac57600080fd5b818b0191508b601f830112620004c157600080fd5b815181811115620004d657620004d662000636565b604051601f8201601f19908116603f0116810190838211818310171562000501576200050162000636565b81604052828152602093508e848487010111156200051e57600080fd5b600091505b8282101562000542578482018401518183018501529083019062000523565b82821115620005545760008484830101525b9b50620005669150508b820162000459565b9850505060408901519550606089015194506200058660808a0162000459565b93506200059660a08a0162000459565b9250620005a660c08a0162000459565b9150620005b660e08a0162000459565b90509295985092959890939650565b600060ff821660ff84168060ff03821115620005f157634e487b7160e01b600052601160045260246000fd5b019392505050565b600181811c908216806200060e57607f821691505b602082108114156200063057634e487b7160e01b600052602260045260246000fd5b50919050565b634e487b7160e01b600052604160045260246000fd5b60805160601c60a05160601c60c05160e0516129a4620006cb6000396000818161073201526114850152600081816103e20152818161145f015261187901526000818161082601526114ae0152600081816108e901528181610d4401528181610f790152818161133401528181611640015261205801526129a46000f3fe6080604052600436106102ff5760003560e01c80638da5cb5b11610190578063c18172c4116100dc578063ddceafa911610095578063e5b824ec1161006f578063e5b824ec1461094b578063f2fde38b1461096b578063f5c0b95f1461098b578063fcb79a7e146109ab57600080fd5b8063ddceafa9146108d7578063de0e9a3e1461090b578063e445d70a1461092b57600080fd5b8063c18172c4146107f4578063c45a015514610814578063d37a9bb014610848578063d502562514610869578063dcc7d4ad1461087e578063dd62ed3e1461089157600080fd5b8063a4c0ed3611610149578063b1c8db6611610123578063b1c8db6614610774578063bf376c7a14610794578063c028df06146107b4578063c07473f6146107d457600080fd5b8063a4c0ed3614610700578063a781358714610720578063a9059cbb1461075457600080fd5b80638da5cb5b1461065b5780638fd3ab801461068057806395d89b41146106955780639e37878c146106aa5780639e4b5745146106ca578063a49a7cb1146106e057600080fd5b806332bc320b1161024f578063609181171161020857806377e071ad116101e257806377e071ad146105e75780637adbf973146106075780637dc2cd9814610627578063833b1fce1461063d57600080fd5b80636091811714610591578063648bf774146105a757806370a08231146105c757600080fd5b806332bc320b146104dc5780634000aea0146104f157806342966c6814610511578063429c66f01461053157806345c8a62b1461055157806350e70d481461057157600080fd5b806318160ddd116102bc5780632a0a4ed5116102965780632a0a4ed51461045b5780632b34309914610470578063313ce5671461049057806332a7ae95146104bc57600080fd5b806318160ddd14610404578063198453541461041957806323b872dd1461043b57600080fd5b806306fdde03146103045780630832e4701461032f578063095ea7b3146103535780630a81b2de146103835780630c6f0e5d146103985780631703a018146103d0575b600080fd5b34801561031057600080fd5b506103196109cb565b6040516103269190612751565b60405180910390f35b34801561033b57600080fd5b5061034560075481565b604051908152602001610326565b34801561035f57600080fd5b5061037361036e3660046123a2565b610b24565b6040519015158152602001610326565b34801561038f57600080fd5b50610345610b3a565b3480156103a457600080fd5b506004546103b8906001600160a01b031681565b6040516001600160a01b039091168152602001610326565b3480156103dc57600080fd5b506103457f000000000000000000000000000000000000000000000000000000000000000081565b34801561041057600080fd5b50600254610345565b34801561042557600080fd5b506104396104343660046123a2565b610bbc565b005b34801561044757600080fd5b50610373610456366004612361565b610c68565b34801561046757600080fd5b506103b8610cc6565b34801561047c57600080fd5b5061037361048b3660046122ee565b610cda565b34801561049c57600080fd5b506003546104aa9060ff1681565b60405160ff9091168152602001610326565b3480156104c857600080fd5b506104396104d73660046122ee565b610ced565b3480156104e857600080fd5b50610439610da3565b3480156104fd57600080fd5b5061037361050c3660046123ce565b610dc9565b34801561051d57600080fd5b5061043961052c366004612630565b610e6e565b34801561053d57600080fd5b5061043961054c36600461248c565b610f05565b34801561055d57600080fd5b5061043961056c3660046122ee565b610f62565b34801561057d57600080fd5b506006546103b8906001600160a01b031681565b34801561059d57600080fd5b5061034560055481565b3480156105b357600080fd5b506104396105c2366004612328565b610f6e565b3480156105d357600080fd5b506103456105e23660046122ee565b610fc9565b3480156105f357600080fd5b506103456106023660046122ee565b610fed565b34801561061357600080fd5b506104396106223660046122ee565b6110b7565b34801561063357600080fd5b5062ed4e00610345565b34801561064957600080fd5b506009546001600160a01b03166103b8565b34801561066757600080fd5b506003546103b89061010090046001600160a01b031681565b34801561068c57600080fd5b50610439611120565b3480156106a157600080fd5b5061031961112b565b3480156106b657600080fd5b506103736106c53660046122ee565b6111bc565b3480156106d657600080fd5b5060075415610373565b3480156106ec57600080fd5b506104396106fb366004612457565b6111c9565b34801561070c57600080fd5b5061037361071b3660046123ce565b611202565b34801561072c57600080fd5b506103457f000000000000000000000000000000000000000000000000000000000000000081565b34801561076057600080fd5b5061037361076f3660046123a2565b611244565b34801561078057600080fd5b5061037361078f3660046122ee565b611250565b3480156107a057600080fd5b506104396107af3660046123a2565b61126e565b3480156107c057600080fd5b506008546103b8906001600160a01b031681565b3480156107e057600080fd5b506103456107ef3660046122ee565b61131e565b34801561080057600080fd5b5061043961080f3660046122ee565b611329565b34801561082057600080fd5b506103b87f000000000000000000000000000000000000000000000000000000000000000081565b34801561085457600080fd5b5060035461037390600160a81b900460ff1681565b34801561087557600080fd5b5061031961137e565b61043961088c36600461254a565b61140c565b34801561089d57600080fd5b506103456108ac366004612328565b6001600160a01b03918216600090815260016020908152604080832093909416825291909152205490565b3480156108e357600080fd5b506103b87f000000000000000000000000000000000000000000000000000000000000000081565b34801561091757600080fd5b50610439610926366004612630565b6115ce565b34801561093757600080fd5b50610439610946366004612510565b6115fd565b34801561095757600080fd5b506104396109663660046122ee565b611635565b34801561097757600080fd5b506104396109863660046122ee565b61168a565b34801561099757600080fd5b506103736109a6366004612457565b611720565b3480156109b757600080fd5b506104396109c6366004612328565b61172c565b60606109d76007541590565b15610a8a57600660009054906101000a90046001600160a01b03166001600160a01b03166306fdde036040518163ffffffff1660e01b815260040160006040518083038186803b158015610a2a57600080fd5b505afa158015610a3e573d6000803e3d6000fd5b505050506040513d6000823e601f3d908101601f19168201604052610a669190810190612583565b604051602001610a7691906126bc565b604051602081830303815290604052905090565b600660009054906101000a90046001600160a01b03166001600160a01b03166306fdde036040518163ffffffff1660e01b815260040160006040518083038186803b158015610ad857600080fd5b505afa158015610aec573d6000803e3d6000fd5b505050506040513d6000823e601f3d908101601f19168201604052610b149190810190612583565b604051602001610a76919061268e565b6000610b31338484611774565b50600192915050565b60065460408051633a98ef3960e01b815290516000926001600160a01b031691633a98ef39916004808301926020929190829003018186803b158015610b7f57600080fd5b505afa158015610b93573d6000803e3d6000fd5b505050506040513d601f19601f82011682018060405250810190610bb79190612649565b905090565b6009546001600160a01b03163314610c085760405162461bcd60e51b815260206004820152600a6024820152696e6f74206f7261636c6560b01b60448201526064015b60405180910390fd5b610c10610b3a565b81610c1a60025490565b610c24919061280e565b1115610c5a5760405162461bcd60e51b8152602060048201526005602482015264766f74657360d81b6044820152606401610bff565b610c6482826117d6565b5050565b6000610c75848484611942565b6001600160a01b0384166000908152600160209081526040808320338452909152902054600160ff1b811015610cb957610cb98533610cb4868561288c565b611774565b60019150505b9392505050565b6000610bb76009546001600160a01b031690565b6000610ce78260166119ca565b92915050565b610cf5610cc6565b6001600160a01b0316336001600160a01b031614610d255760405162461bcd60e51b8152600401610bff906127a9565b6040516332a7ae9560e01b81526001600160a01b0382811660048301527f000000000000000000000000000000000000000000000000000000000000000016906332a7ae9590602401600060405180830381600087803b158015610d8857600080fd5b505af1158015610d9c573d6000803e3d6000fd5b5050505050565b6008546001600160a01b0316331415610dc757600880546001600160a01b03191690555b565b600080610dd68686611244565b90508015610e6557604051635260769b60e11b81526001600160a01b0387169063a4c0ed3690610e10903390899089908990600401612709565b602060405180830381600087803b158015610e2a57600080fd5b505af1158015610e3e573d6000803e3d6000fd5b505050506040513d601f19601f82011682018060405250810190610e62919061252d565b90505b95945050505050565b610e783382611a0a565b6000610e846007541590565b610e9057600754610e93565b60015b6006549091506001600160a01b03166342966c68610eb1838561286d565b6040518263ffffffff1660e01b8152600401610ecf91815260200190565b600060405180830381600087803b158015610ee957600080fd5b505af1158015610efd573d6000803e3d6000fd5b505050505050565b60035461010090046001600160a01b03163314610f345760405162461bcd60e51b8152600401610bff906127eb565b60005b82811015610f5c57610f4a848484610f05565b80610f5481612904565b915050610f37565b50505050565b610c6481600180611aa0565b336001600160a01b037f00000000000000000000000000000000000000000000000000000000000000001614610fb65760405162461bcd60e51b8152600401610bff906127a9565b610c648282610fc485610fc9565b611942565b6001600160a01b03166000908152602081905260409020546001600160e01b031690565b600080610ff983611ad0565b905080156110075792915050565b6006546001600160a01b0384811691161415611027575050600754919050565b6007546006546040516377e071ad60e01b81526001600160a01b038681166004830152909116906377e071ad9060240160206040518083038186803b15801561106f57600080fd5b505afa158015611083573d6000803e3d6000fd5b505050506040513d601f19601f820116820180604052508101906110a79190612649565b610cbf919061286d565b50919050565b6009546001600160a01b031633146110fe5760405162461bcd60e51b815260206004820152600a6024820152696e6f74206f7261636c6560b01b6044820152606401610bff565b600980546001600160a01b0319166001600160a01b0392909216919091179055565b610dc73360006117d6565b600654604080516395d89b4160e01b815290516060926001600160a01b0316916395d89b41916004808301926000929190829003018186803b15801561117057600080fd5b505afa158015611184573d6000803e3d6000fd5b505050506040513d6000823e601f3d908101601f191682016040526111ac9190810190612583565b604051602001610a7691906126e4565b6000610ce78260156119ca565b60035461010090046001600160a01b031633146111f85760405162461bcd60e51b8152600401610bff906127eb565b610c648282611b16565b6006546000906001600160a01b0316331461122f5760405162461bcd60e51b8152600401610bff906127a9565b6112398585611b94565b506001949350505050565b6000610cbf8383611c00565b600061125d8260146119ca565b80610ce75750610ce78260166119ca565b6006546040516323b872dd60e01b8152336004820152306024820152604481018390526001600160a01b03909116906323b872dd90606401602060405180830381600087803b1580156112c057600080fd5b505af11580156112d4573d6000803e3d6000fd5b505050506040513d601f19601f820116820180604052508101906112f8919061252d565b6113145760405162461bcd60e51b8152600401610bff906127c9565b610c648282611b94565b6000610ce782610fc9565b336001600160a01b037f000000000000000000000000000000000000000000000000000000000000000016146113715760405162461bcd60e51b8152600401610bff906127a9565b610c6481600a6001611aa0565b600a805461138b906128cf565b80601f01602080910402602001604051908101604052809291908181526020018280546113b7906128cf565b80156114045780601f106113d957610100808354040283529160200191611404565b820191906000526020600020905b8154815290600101906020018083116113e757829003601f168201915b505050505081565b6007541561142c5760405162461bcd60e51b8152600401610bff90612789565b604051634dc5e43160e01b815260048101849052336024820152604481018390526001600160a01b0382811660648301527f000000000000000000000000000000000000000000000000000000000000000060848301527f000000000000000000000000000000000000000000000000000000000000000060a48301526000917f000000000000000000000000000000000000000000000000000000000000000090911690634dc5e43190349060c4016020604051808303818588803b1580156114f557600080fd5b505af1158015611509573d6000803e3d6000fd5b50505050506040513d601f19601f8201168201806040525081019061152e919061230b565b90506115446008546001600160a01b0316151590565b156115a957600854604051637b64620f60e11b81526001600160a01b0383811660048301529091169063f6c8c41e90602401600060405180830381600087803b15801561159057600080fd5b505af11580156115a4573d6000803e3d6000fd5b505050505b600880546001600160a01b0319166001600160a01b0392909216919091179055505050565b6007546115ed5760405162461bcd60e51b8152600401610bff90612789565b6115fa3382600754611c0c565b50565b60035461010090046001600160a01b0316331461162c5760405162461bcd60e51b8152600401610bff906127eb565b6115fa81611cd1565b336001600160a01b037f0000000000000000000000000000000000000000000000000000000000000000161461167d5760405162461bcd60e51b8152600401610bff906127a9565b610c6481600a6000611aa0565b60035461010090046001600160a01b031633146116b95760405162461bcd60e51b8152600401610bff906127eb565b6003546040516001600160a01b0380841692610100900416907f8be0079c531659141344cd1fd0a4f28419497f9722a3daafe3b4186f6b6457e090600090a3600380546001600160a01b0390921661010002610100600160a81b0319909216919091179055565b6000610cbf83836119ca565b6008546001600160a01b031633146117565760405162461bcd60e51b8152600401610bff906127a9565b61176a8261176384610fc9565b6001611c0c565b610c648183611d01565b6001600160a01b0383811660008181526001602090815260408083209487168084529482529182902085905590518481527f8c5be1e5ebec7d5bd14f71427d1e84f3dd0314c0f7b2291e5b200ac8c7c3b92591015b60405180910390a3505050565b60006117e183610fc9565b6117eb908361280e565b905060006117f7610b3a565b90508082106118305760405162461bcd60e51b8152602060048201526005602482015264766f74657360d81b6044820152606401610bff565b6008546001600160a01b0316156118745760405162461bcd60e51b815260206004820152600860248201526737379037b33332b960c11b6044820152606401610bff565b61189e7f00000000000000000000000000000000000000000000000000000000000000008261286d565b6118aa8361271061286d565b10156118e15760405162461bcd60e51b815260206004820152600660248201526571756f72756d60d01b6044820152606401610bff565b6118eb8485611d01565b604080516001600160a01b038616815260208101849052908101849052606081018290527f85e5711a70a7d2bae18e1232af474d82c98600b0e62fe079a28208520b58568e9060800160405180910390a150505050565b61194d838383611eec565b6001600160a01b0383166000908152602081905260408120805483929061197590849061288c565b9091555061198590508282611ef7565b816001600160a01b0316836001600160a01b03167fddf252ad1be2c89b69c2b068fc378daa952ba7f163c4a11628f55a4df523b3ef836040516117c991815260200190565b6000806119d88360e0612826565b6001600160a01b038516600090815260208190526040902054600160ff929092169190911b9081161491505092915050565b611a1682600083611eec565b8060026000828254611a28919061288c565b90915550506001600160a01b03821660009081526020819052604081208054839290611a5590849061288c565b90915550506040518181526000906001600160a01b038416907fddf252ad1be2c89b69c2b068fc378daa952ba7f163c4a11628f55a4df523b3ef906020015b60405180910390a35050565b6000811515611aaf85856119ca565b151514611ac857611ac08484611fcd565b506001610cbf565b506000610cbf565b60006001600160a01b038216301415611aeb57506001919050565b6004546001600160a01b0383811691161415611b0957505060055490565b506000919050565b919050565b611b2882601460ff8416600114611aa0565b50611b3b82601560ff8416600214611aa0565b50611b4e82601660ff8416600414611aa0565b5060405160ff821681526001600160a01b038316907fe423d7d31023dbacefed7c937785d0012ad8f314381295efebfc0471d2c434549060200160405180910390a25050565b611ba060008383611eec565b8060026000828254611bb2919061280e565b90915550611bc290508282611ef7565b6040518181526001600160a01b038316906000907fddf252ad1be2c89b69c2b068fc378daa952ba7f163c4a11628f55a4df523b3ef90602001611a94565b6000610cbf838361200b565b611c168383611a0a565b6006546001600160a01b031663a9059cbb84611c32848661286d565b6040516001600160e01b031960e085901b1681526001600160a01b0390921660048301526024820152604401602060405180830381600087803b158015611c7857600080fd5b505af1158015611c8c573d6000803e3d6000fd5b505050506040513d601f19601f82011682018060405250810190611cb0919061252d565b611ccc5760405162461bcd60e51b8152600401610bff906127c9565b505050565b6003805460ff60a81b1916600160a81b1790558015611cf6576115fa60006004611b16565b6115fa600080611b16565b60075415611d215760405162461bcd60e51b8152600401610bff90612789565b6006546040516370a0823160e01b81523060048201526001600160a01b039091169063a9059cbb90839083906370a082319060240160206040518083038186803b158015611d6e57600080fd5b505afa158015611d82573d6000803e3d6000fd5b505050506040513d601f19601f82011682018060405250810190611da69190612649565b6040516001600160e01b031960e085901b1681526001600160a01b0390921660048301526024820152604401602060405180830381600087803b158015611dec57600080fd5b505af1158015611e00573d6000803e3d6000fd5b505050506040513d601f19601f82011682018060405250810190611e24919061252d565b611e405760405162461bcd60e51b8152600401610bff906127c9565b600680546001600160a01b0319166001600160a01b038416179055600254610c64906006546040516370a0823160e01b81523060048201526001600160a01b03909116906370a082319060240160206040518083038186803b158015611ea557600080fd5b505afa158015611eb9573d6000803e3d6000fd5b505050506040513d601f19601f82011682018060405250810190611edd9190612649565b611ee7919061284b565b6120c5565b611ccc838383612135565b6001600160a01b038216611f335760405162461bcd60e51b815260206004820152600360248201526203078360ec1b6044820152606401610bff565b6001600160a01b038216600090815260208190526040812054906001600160e01b0319821690611f63848461280e565b90506001600160e01b03198116828114611faa5760405162461bcd60e51b81526020600482015260086024820152676f766572666c6f7760c01b6044820152606401610bff565b506001600160a01b03909416600090815260208190526040902093909355505050565b6000611fda8260e0612826565b6001600160a01b039390931660009081526020819052604090208054600160ff9095169490941b9093189092555050565b60006120178383612140565b6120335760405162461bcd60e51b8152600401610bff906127c9565b61203e33600a6119ca565b15610b31576040516304d301a360e41b81523360048201527f00000000000000000000000000000000000000000000000000000000000000006001600160a01b031690634d301a3090602401600060405180830381600087803b1580156120a457600080fd5b505af11580156120b8573d6000803e3d6000fd5b5050505050600192915050565b60018110156120e65760405162461bcd60e51b8152600401610bff90612789565b60078190557f6c20b91d1723b78732eba64ff11ebd7966a6e4af568a00fa4f6b72c20f58b02a6121146109cb565b61211c61112b565b60405161212a929190612764565b60405180910390a150565b611ccc83838361214d565b6000610b31338484611942565b61215683612216565b80612165575061216582612216565b1561220b576008546001600160a01b0316156121ee5760085460405163e1a1810f60e01b81526001600160a01b0385811660048301528481166024830152604482018490529091169063e1a1810f90606401600060405180830381600087803b1580156121d157600080fd5b505af11580156121e5573d6000803e3d6000fd5b5050505061220b565b6121fb8360016000611aa0565b506122098260016000611aa0565b505b611ccc838383612223565b6000610ce78260016119ca565b61222c82611250565b1561223657505050565b61223f826111bc565b1561224d57611ccc8261228a565b61225683610cda565b1561226657611ccc8260016111c9565b6122718360146119ca565b806122805750612280836111bc565b15611ccc57611ccc835b600354600160a81b900460ff16156122d25760405162461bcd60e51b815260206004820152600b60248201526a1b9bdd08185b1b1bddd95960aa1b6044820152606401610bff565b6115fa8160006111c9565b803560ff81168114611b1157600080fd5b60006020828403121561230057600080fd5b8135610cbf8161294b565b60006020828403121561231d57600080fd5b8151610cbf8161294b565b6000806040838503121561233b57600080fd5b82356123468161294b565b915060208301356123568161294b565b809150509250929050565b60008060006060848603121561237657600080fd5b83356123818161294b565b925060208401356123918161294b565b929592945050506040919091013590565b600080604083850312156123b557600080fd5b82356123c08161294b565b946020939093013593505050565b600080600080606085870312156123e457600080fd5b84356123ef8161294b565b935060208501359250604085013567ffffffffffffffff8082111561241357600080fd5b818701915087601f83011261242757600080fd5b81358181111561243657600080fd5b88602082850101111561244857600080fd5b95989497505060200194505050565b6000806040838503121561246a57600080fd5b82356124758161294b565b9150612483602084016122dd565b90509250929050565b6000806000604084860312156124a157600080fd5b833567ffffffffffffffff808211156124b957600080fd5b818601915086601f8301126124cd57600080fd5b8135818111156124dc57600080fd5b8760208260051b85010111156124f157600080fd5b60209283019550935061250791860190506122dd565b90509250925092565b60006020828403121561252257600080fd5b8135610cbf81612960565b60006020828403121561253f57600080fd5b8151610cbf81612960565b60008060006060848603121561255f57600080fd5b833592506020840135915060408401356125788161294b565b809150509250925092565b60006020828403121561259557600080fd5b815167ffffffffffffffff808211156125ad57600080fd5b818401915084601f8301126125c157600080fd5b8151818111156125d3576125d3612935565b604051601f8201601f19908116603f011681019083821181831017156125fb576125fb612935565b8160405282815287602084870101111561261457600080fd5b6126258360208301602088016128a3565b979650505050505050565b60006020828403121561264257600080fd5b5035919050565b60006020828403121561265b57600080fd5b5051919050565b6000815180845261267a8160208601602086016128a3565b601f01601f19169290920160200192915050565b600082516126a08184602087016128a3565b692028577261707065642960b01b920191825250600a01919050565b600082516126ce8184602087016128a3565b632053484160e01b920191825250600401919050565b600082516126f68184602087016128a3565b605360f81b920191825250600101919050565b6001600160a01b0385168152602081018490526060604082018190528101829052818360808301376000818301608090810191909152601f909201601f191601019392505050565b602081526000610cbf6020830184612662565b6040815260006127776040830185612662565b8281036020840152610e658185612662565b6020808252600690820152653330b1ba37b960d11b604082015260600190565b60208082526006908201526539b2b73232b960d11b604082015260600190565b6020808252600890820152673a3930b739b332b960c11b604082015260600190565b6020808252600990820152683737ba1037bbb732b960b91b604082015260600190565b600082198211156128215761282161291f565b500190565b600060ff821660ff84168060ff038211156128435761284361291f565b019392505050565b60008261286857634e487b7160e01b600052601260045260246000fd5b500490565b60008160001904831182151516156128875761288761291f565b500290565b60008282101561289e5761289e61291f565b500390565b60005b838110156128be5781810151838201526020016128a6565b83811115610f5c5750506000910152565b600181811c908216806128e357607f821691505b602082108114156110b157634e487b7160e01b600052602260045260246000fd5b60006000198214156129185761291861291f565b5060010190565b634e487b7160e01b600052601160045260246000fd5b634e487b7160e01b600052604160045260246000fd5b6001600160a01b03811681146115fa57600080fd5b80151581146115fa57600080fdfea264697066735822122050ca5f52b7588b045f1eb648ae4896423f4ab5e43453515781cc655c20d3d81a64736f6c63430008070033",
  "devdoc": {
    "kind": "dev",
    "methods": {
      "allowance(address,address)": {
        "details": "See `IERC20.allowance`."
      },
      "approve(address,uint256)": {
        "details": "See `IERC20.approve`. Requirements: - `spender` cannot be the zero address."
      },
      "balanceOf(address)": {
        "details": "See `IERC20.balanceOf`."
      },
      "totalSupply()": {
        "details": "See `IERC20.totalSupply`."
      },
      "transferFrom(address,address,uint256)": {
        "details": "See `IERC20.transferFrom`. Emits an `Approval` event indicating the updated allowance. This is not required by the EIP. See the note at the beginning of `ERC20`; Requirements: - `sender` and `recipient` cannot be the zero address. - `sender` must have a balance of at least `value`. - the caller must have allowance for `sender`'s tokens of at least `amount`."
      },
      "transferOwnership(address)": {
        "details": "Transfers ownership of the contract to a new account (`newOwner`). Can only be called by the current owner."
      }
    },
    "version": 1
  },
  "userdoc": {
    "kind": "user",
    "methods": {
      "burn(uint256)": {
        "notice": "Burns both the token itself as well as the wrapped token! If you want to get out of the shareholder agreement, use unwrap after it has been deactivated by a majority vote or acquisition. Burning only works if wrapped token supports burning. Also, the exact meaning of this operation might depend on the circumstances. Burning and reussing the wrapped token does not free the sender from the legal obligations of the shareholder agreement."
      },
      "canReceiveFromAnyone(address)": {
        "notice": "If true, this address is allowlisted and can only transfer tokens to other allowlisted addresses."
      },
      "getClaimDeleter()": {
        "notice": "Let the oracle act as deleter of invalid claims. In earlier versions, this was referring to the claim deleter of the wrapped token. But that stops working after a successful acquisition as the acquisition currency most likely does not have a claim deleter."
      },
      "getCollateralRate(address)": {
        "notice": "Returns the collateral rate for the given collateral type and 0 if that type of collateral is not accepted. By default, only the token itself is accepted at a rate of 1:1. Subclasses should override this method if they want to add additional types of collateral."
      },
      "isBinding()": {
        "notice": "Indicates that the token holders are bound to the token terms and that: - Conversion back to the wrapped token (unwrap) is not allowed - A drag-along can be performed by making an according offer - They can be migrated to a new version of this contract in accordance with the terms"
      },
      "isForbidden(address)": {
        "notice": "If true, this address can only transfer tokens to allowlisted addresses and not receive from anyone."
      },
      "isPowerlisted(address)": {
        "notice": "If true, this address can automatically allowlist target addresses if necessary."
      },
      "name()": {
        "notice": "Current recommended naming convention is to add the postfix \"SHA\" to the plain shares in order to indicate that this token represents shares bound to a shareholder agreement."
      },
      "setApplicable(bool)": {
        "notice": "Configures whether the allowlisting is applied. Also sets the powerlist and allowlist flags on the null address accordingly. It is recommended to also deactivate the powerlist flag on other addresses."
      },
      "unwrap(uint256)": {
        "notice": "Decrease the number of drag-along tokens. The user gets back their shares in return "
      },
      "wrap(address,uint256)": {
        "notice": "Wraps additional tokens, thereby creating more ERC20Draggable tokens. "
      }
    },
    "version": 1
  },
  "storageLayout": {
    "storage": [
      {
        "astId": 521,
        "contract": "src/shares/AllowlistDraggableShares.sol:AllowlistDraggableShares",
        "label": "_balances",
        "offset": 0,
        "slot": "0",
        "type": "t_mapping(t_address,t_uint256)"
      },
      {
        "astId": 527,
        "contract": "src/shares/AllowlistDraggableShares.sol:AllowlistDraggableShares",
        "label": "_allowances",
        "offset": 0,
        "slot": "1",
        "type": "t_mapping(t_address,t_mapping(t_address,t_uint256))"
      },
      {
        "astId": 529,
        "contract": "src/shares/AllowlistDraggableShares.sol:AllowlistDraggableShares",
        "label": "_totalSupply",
        "offset": 0,
        "slot": "2",
        "type": "t_uint256"
      },
      {
        "astId": 532,
        "contract": "src/shares/AllowlistDraggableShares.sol:AllowlistDraggableShares",
        "label": "decimals",
        "offset": 0,
        "slot": "3",
        "type": "t_uint8"
      },
      {
        "astId": 8211,
        "contract": "src/shares/AllowlistDraggableShares.sol:AllowlistDraggableShares",
        "label": "owner",
        "offset": 1,
        "slot": "3",
        "type": "t_address"
      },
      {
        "astId": 209,
        "contract": "src/shares/AllowlistDraggableShares.sol:AllowlistDraggableShares",
        "label": "restrictTransfers",
        "offset": 21,
        "slot": "3",
        "type": "t_bool"
      },
      {
        "astId": 6328,
        "contract": "src/shares/AllowlistDraggableShares.sol:AllowlistDraggableShares",
        "label": "customCollateralAddress",
        "offset": 0,
        "slot": "4",
        "type": "t_address"
      },
      {
        "astId": 6330,
        "contract": "src/shares/AllowlistDraggableShares.sol:AllowlistDraggableShares",
        "label": "customCollateralRate",
        "offset": 0,
        "slot": "5",
        "type": "t_uint256"
      },
      {
        "astId": 3073,
        "contract": "src/shares/AllowlistDraggableShares.sol:AllowlistDraggableShares",
        "label": "wrapped",
        "offset": 0,
        "slot": "6",
        "type": "t_contract(IERC20)1179"
      },
      {
        "astId": 3079,
        "contract": "src/shares/AllowlistDraggableShares.sol:AllowlistDraggableShares",
        "label": "unwrapConversionFactor",
        "offset": 0,
        "slot": "7",
        "type": "t_uint256"
      },
      {
        "astId": 3082,
        "contract": "src/shares/AllowlistDraggableShares.sol:AllowlistDraggableShares",
        "label": "offer",
        "offset": 0,
        "slot": "8",
        "type": "t_contract(IOffer)3794"
      },
      {
        "astId": 3088,
        "contract": "src/shares/AllowlistDraggableShares.sol:AllowlistDraggableShares",
        "label": "oracle",
        "offset": 0,
        "slot": "9",
        "type": "t_address"
      },
      {
        "astId": 7385,
        "contract": "src/shares/AllowlistDraggableShares.sol:AllowlistDraggableShares",
        "label": "terms",
        "offset": 0,
        "slot": "10",
        "type": "t_string_storage"
      }
    ],
    "types": {
      "t_address": {
        "encoding": "inplace",
        "label": "address",
        "numberOfBytes": "20"
      },
      "t_bool": {
        "encoding": "inplace",
        "label": "bool",
        "numberOfBytes": "1"
      },
      "t_contract(IERC20)1179": {
        "encoding": "inplace",
        "label": "contract IERC20",
        "numberOfBytes": "20"
      },
      "t_contract(IOffer)3794": {
        "encoding": "inplace",
        "label": "contract IOffer",
        "numberOfBytes": "20"
      },
      "t_mapping(t_address,t_mapping(t_address,t_uint256))": {
        "encoding": "mapping",
        "key": "t_address",
        "label": "mapping(address => mapping(address => uint256))",
        "numberOfBytes": "32",
        "value": "t_mapping(t_address,t_uint256)"
      },
      "t_mapping(t_address,t_uint256)": {
        "encoding": "mapping",
        "key": "t_address",
        "label": "mapping(address => uint256)",
        "numberOfBytes": "32",
        "value": "t_uint256"
      },
      "t_string_storage": {
        "encoding": "bytes",
        "label": "string",
        "numberOfBytes": "32"
      },
      "t_uint256": {
        "encoding": "inplace",
        "label": "uint256",
        "numberOfBytes": "32"
      },
      "t_uint8": {
        "encoding": "inplace",
        "label": "uint8",
        "numberOfBytes": "1"
      }
    }
  }
}